:100000000C9430210C9440210C9440210C944021FC
:100010000C9440210C9440210C9440210C944021DC
:100020000C9440210C9440210C9440210C944021CC
:100030000C9440210C9440210C9440210C944021BC
:100040000C9440210C9440210C949A230C94402150
:100050000C9440210C9440210C9440210C9440219C
:100060000C9440210C9440212E0000EA24FFAE5154
:10007000699AA2213D84820A84E409AD11248B98F7
:10008000C0817F21A352BE199309CE2010464A4A4F
:10009000F82731EC58C7E83382E3CEBF85F4DF940C
:1000A000CE4B09C194568AC01372A7FC9F844D732E
:1000B000A3CA9A615897A327FC039876231DC761AA
:1000C0000304AE56BF38840040A70EFDFF52FE0366
:1000D0006F9530F197FBC08560D68025A963BE037C
:1000E000014E38E2F9A234FFBB3E0344780090CBC6
:1000F00088113A9465C07C6387F03CAFD625E48BC9
:10010000380AAC7221D4F80700000000000000009B
:1001100000000000000000003031960000000000E8
:100120000000000000F00000060000EA00000000EF
:1001300000000000000000000000000000000000BF
:1001400000000000000000001200A0E300F029E120
:1001500070D09FE51F00A0E300F029E168D09FE583
:1001600001008FE210FF2FE119481A49091A00F027
:1001700013F81949194A1A4C00F017F819491A4A84
:100180001A4C00F012F81A491A48086000200021A1
:10019000194B9E46194B184703228918914303D0E7
:1001A000002204C00439FCD17047A31A03201B1895
:1001B000834303D001C901C2043BFBD17047C04651
:1001C00038009FE510FF2FE1A07F0003007F0003B0
:1001D000400100035C2D0003343D00025C2D000350
:1001E00020320003F43B0002000000034001000342
:1001F000FC7F000358010002E0000002F92B00021E
:10020000E91500021049114B8200D3580A0010B5BD
:10021000083244311479A04207D11468002C04D06C
:100220001400083C2468E4111B1914328A42F1D1ED
:100230007F2B03DCDA43D217134000E07F23180042
:1002400010BC02BC0847C04694020003940100039E
:100250000E4A1300F0B500240126D56B4033E0327E
:100260001F7887420BD11F798F4208D1002D03D010
:10027000042901D1DE7002E01C701C725C70143322
:100280009342EDD1F0BC01BC0047C046940200038C
:10029000F7B5019114211D4E350000238C464035E1
:1002A00064465C43675D3100002F1DD087420AD051
:1002B0000133082BF4D100230F0014251E001C006D
:1002C0004037AC4607E02C1924799442F0D10BE07A
:1002D0000134082C08D0654665437D19ED78B54298
:1002E000F6DD2E002300F3E714245C434031605414
:1002F000684600790919487000200A718870C87032
:1003000008721800FEBC02BC0847C04694020003F5
:1003100070B506000D1E03DB7F2908DD7F2508E090
:100320000025B01E01F076F90400300007E03F29F7
:10033000F7DD300001F06EF9403D0400B01C01F023
:1003400069F93F23011B6943C817184041188911F7
:10035000081970BC02BC0847F7B505000C006F4EC9
:1003600000280BD13700336E64370520002B00D0F6
:100370000820FFF747FF0100387812E0012807D175
:100380000520FFF73FFF330064330100587808E091
:10039000022809D10620FFF735FF3300643301003E
:1003A0009878FFF7B5FF19E000230193032816D1D1
:1003B0000720FFF727FF330067226433DB78D21A68
:1003C000D30F9A180300403B5210DB109B18DA1031
:1003D0001000684302010720184010430190B36EDB
:1003E0009D4203D002239D4201D012E000231B0155
:1003F000F718FA6E002A04D080213A6F49028A4227
:1004000076D132006432525D002A02D0F618019B88
:10041000B367002D1BD1424A136B42491B041B0CCE
:100420000B8041490B88D06A1B0B1B0303431B0441
:100430001B0C0B800198536B184300040014002C14
:1004400000D03A4C04432404240C394B4EE0012DD7
:1004500016D13849324A0B88D06B1B0B1B03034360
:100460001B041B0C0B800198936B184300040014B1
:10047000002C00D02D4C04432404240C2E4B35E0DA
:10048000022D1BD1264A936C2C491B041B0C0B809C
:100490002B490B88506C1B0B1B0303431B041B0CC9
:1004A0000B800198D36C184300040014002C00D07A
:1004B0001E4C04432404240C224B17E0032D29D1A5
:1004C0002149174A0B88506D1B0B1B0303431B0468
:1004D0001B0C0B800198136D184300040014002CB2
:1004E00000D0124C04432404184B240C1C8011E04F
:1004F00064208446B4446046405D002800D180E713
:100500007F6F881A0100794301985043081802143C
:10051000019276E7F7BC01BC0047C0461403000314
:100520009403000360000004620000040080FFFFE9
:1005300064000004680000046C0000047000000403
:100540007200000474000004780000047C000004C1
:10055000F8B507000E00402902D101F047F82BE062
:10056000002903DB7F2909DD7F2609E00026B81E6C
:1005700001F03CF800250400380008E03F29F6DDD2
:10058000380001F033F800250400403EB81C01F0AB
:100590002DF82B000200F117121BAB41300002F0C6
:1005A0008BFB3F25CE172E40002332008018594187
:1005B0008B06800918430019F8BC02BC08470E4B93
:1005C0009B6E984204D00223984202D0002011E092
:1005D00000230A4A9B00D318DB6F012B03D1800054
:1005E0001018C06E06E00120022B03D0033B5842D6
:1005F000584140007047C0461403000394030003B1
:10060000F7B50F000021494EB36E050000919842E6
:1006100006D0831E591E8B4102215B421943009173
:1006200094100F2C0CDC009B01332BD0002C0BD131
:10063000330064335A5DBA4275D100245C5529E019
:10064000009B0F2401331FD0330064335B5D0193A3
:10065000002B09D12800FFF7B2FF022804D0009B2D
:100660001B01F318019A0CE02800FFF7A8FF0028EF
:1006700008D0009B1B01F3189A6F5A6700221A6773
:100680000132DA66002CD3D0330064335A5D9742CE
:1006900049D05F55002D1FD12203254CE36A1A4330
:1006A0001204244B120C28001A800121FFF754FE7B
:1006B000336E214D214E0820002B00D10520FFF77D
:1006C000A1FD01003800FFF723FE636B1E4330439A
:1006D0000004000C288026E0012D09D1144BDA6BB0
:1006E000240314432404164B240C1C80290017E017
:1006F000022D0AD1134B0E4A1B5D526C5B03134350
:100700001B04114A1B0C138009E0032D0BD1084B6D
:100710005A6D2403144324040C4B240C1C80012127
:100720002800FFF719FEF7BC01BC004714030003C3
:100730009403000362000004640000040080FFFFD3
:1007400068000004602C00027200000478000004BD
:10075000F0B5082800D900201A4D2E0003001427F8
:1007600040360133072B00DD002398420BD03C00BC
:100770005C43A25D002AF4D03419227A002AF0D01A
:100780002479A142EDD114200E4A40321400020017
:100790005A43165D0C4D8800002E06D0A218147A1C
:1007A000002C02D01279914205D000232818C36092
:1007B0000120404203E001222818C2601800F0BC6A
:1007C00002BC08479402000314040003114B70B5E7
:1007D0001A88C51D0B30552904DD012181408A434B
:1007E0001A800CE001242600864032431204120CC9
:1007F0001A802A2903DCAC401A88A24305E00122B2
:10080000AA4019880A431204120C1A8070BC01BC59
:100810000047C046800000040022024B58685A601E
:100820007047C0465C2D0003014B8000C0587047E4
:1008300094010003F0B5050087B00E1E19D1744B6A
:100840001A0064321278824201D1724AD16664334E
:100850005B789D4202D100226E4B1A67002128006E
:10086000FFF7F6FC002229001000FFF7C9FE002266
:100870009FE00022FFF70CFD0123674C5B420293CF
:1008800000234234270005900393059B039A93426B
:1008900066D0BB1E1B780193002B61D03B78012BE7
:1008A00022D8BA78012A1FD85C4A9268002A1BD045
:1008B0001423059A5343584A4032D31801221A721E
:1008C000534B1A0064321178019A914205D1186E87
:1008D000002802D10200FFF793FE01230022BB7122
:1008E0004C4BDA661A673BE0052B39D8BB78002BF6
:1008F00036D1BB79002B33D1454A130064331978C4
:1009000001981300814214D1126E0492002A10D172
:10091000404B01320498DA66FFF751FE002804D0FC
:10092000049A01991000FFF76BFE0023384A936682
:1009300015E064335B78019A934211D10122354B63
:1009400000201A67FFF73BFE002804D0002201991F
:100950000120FFF755FE01222D4B9A6613000293EA
:10096000039B013303931437082B8ED1294BDB6F84
:10097000012B04DD0123264A0293936602E0029BC9
:10098000013303D03200290002981BE01423224ACD
:1009900011000598584340310B181B7A002B32D1B7
:1009A0001B4B186E1E49002806D0CB68002B2AD19D
:1009B00032002900012005E0C968002905D0320075
:1009C00029000020FFF71CFE1DE0643318785F78D3
:1009D0007F23E23294461900A21E1278824206D189
:1009E000A278002A09D12178B84206D104E0BA429F
:1009F00003D1A278002A00D123781434A445EBD186
:100A00008B42D5DADBE707B0F0BC01BC0047C0463B
:100A10001403000394030003940200035C2D0003FD
:100A200014040003F0B5050085B00E1E10D12E4B46
:100A300064339B78834201D12C4B596728000121F4
:100A4000FFF706FC002229000220FFF7D9FD46E04F
:100A5000274900220C00254BE2315A67029100928F
:100A600003934234A31E1B780193002B19D02378E3
:100A70009A1E032A0ED8A778012F12D1039B0220B9
:100A80005F67FFF79CFD00280BD039000198FFF746
:100A9000DFFB06E0012B04D8A378012B01D1A37161
:100AA0000093029B14349C42DCD1012231002800C7
:100AB000FFF7EEFB04000220FFF781FD002807D0BE
:100AC000320029000220FFF79BFD009B002B06D07F
:100AD00014235C43064B40331C190123237205B0D9
:100AE000F0BC01BC0047C04614030003940300039C
:100AF0009402000310B50A0001000320FFF780FDF7
:100B000010BC01BC0047014B98667047940300037A
:100B100070B50500002903D10431FFF799FB15E0FA
:100B20000422FFF7B5FB14240300180060430023E0
:100B3000084C2418A3641020FFF764FB0100280070
:100B4000FFF706FD044B5B6EE064236570BC01BCDF
:100B50000047C04694020003940300030122FF23D0
:100B600018407F2802DD80385242F9E7054B3F28C4
:100B700002DD181A7F3000E01818037C100058437B
:100B80007047C046602C0002F0B50F0085B0012808
:100B900018D100252A2903DD4035542900DD4035D0
:100BA000C24B186EC24CC34E002806D1E36A3340D4
:100BB0002B43E3620100FFF7CFFBE36B1E4035439D
:100BC000E56342E0022816D1B84B1B6E002B00D122
:100BD00099E200232A2903DD4033542900DD403304
:100BE000B349B44AC86A02401343CB6200210800EB
:100BF000FFF7B2FB87E2052807D1AC4B186E00283F
:100C000023D10100FFF7A8FB1FE0062801D0072829
:100C100002D100210438EBE7132819D10C0010345D
:100C20007F2C00DD0024A14B1A6E2411A04B002A5A
:100C300005D1D96AA04A0A4021020A43DA62DA6B76
:100C40009E48240210400443DC6300210120CFE7CA
:100C500014280FD10C0010347F2C00DD0024944B9D
:100C600096485A6D24111040240204435C6500210B
:100C70000320BDE7122830D18C4B1B6E8C4D904E5B
:100C8000002B15D17F2903D18E4B6A6B134003E0F3
:100C900080236A6BDB0113437F22E96A6B63D31BFA
:100CA00031405B100B430021EB620800FFF754FB5F
:100CB0007F2F03D1834BAA6B134003E08023AA6BE1
:100CC000DB0113437F20AB63EB6BC41B1E4064103E
:100CD0003443EC6300217E388AE7112817D1744B26
:100CE0007F2903D1774AD96C0A4003E08022D96C6E
:100CF000D2010A437F20DA64FF22596CC41B12021E
:100D00000A40640014435C6400217D3870E71528B4
:100D100016D1674B7F2903D16A4A196D0A4003E057
:100D20008022196DD2010A437F20596D1A65644AE9
:100D3000C41B0A40641014435C6500217C3857E7EB
:100D40000B2819D1594B1B6E002B00D1DBE1584BFE
:100D50007F2903D15B4A596B0A4003E08022596B1B
:100D6000D2010A437F20D96A5A63554AC41B0A40FC
:100D700064101443DC62C6E11A2808D1524B0029E2
:100D800000D10CE16630441AE4019C60BBE1092803
:100D900012D1464B1B6E002B03D06F2902DD6F274B
:100DA00000E01F007F20424A484B116BC41B0B40E0
:100DB00024111C431463A6E10A2824D13B4B1B6E6B
:100DC0003B4A002B0DD0082307290ADD0B003721F1
:100DD000772F0EDC3900403900290ADC402F00D182
:100DE00000230F21106B01400820DB1001431B0181
:100DF00006E040235B1A0F21106BDB101B01014042
:100E00000B4313637FE1082805D1284B1B6E002B91
:100E100000D178E1EAE60C2812D1244B1B6E002B9E
:100E200000D170E10C0010347F2C00DD0024204B39
:100E30002248DA6A2411104024020443DC62D5E619
:100E4000032809D11A4A224B116DBC110B40E40052
:100E50001C4314650021CBE6042847D10F23C81793
:100E60001840441824111B49A30024010C19206DBB
:100E7000194A10605A1C92008A18106D174A1060A7
:100E80009A1C92008A180333106D9B00144ACB18E9
:100E900010601A6D134B1A604023054A916C4B4049
:100EA00093641B04104A1B0C13802CE114030003F1
:100EB000940300033FFF0000FFF80000FFF0000074
:100EC000C0FF0000FFBF00005C2D0003F8FF000022
:100ED000F7FF0000602C0002900000049400000462
:100EE000980000049C0000047000000403000D3B07
:100EF000022B44D80D20FFF785F905000F20FFF7DE
:100F000081F907000E20FFF77DF9814B1900814A16
:100F10000090506E1431884200D17F4B80241433EE
:100F2000641B5366E41B01D52D1900247F231A008E
:100F30006A430192EA01AA1A002502920393FE0174
:100F40002800FFF70BFE030018006043009A029B85
:100F50003018C318AA4201DD019BC3186D4A0398DB
:100F6000516EDA170240D318DB114B5501F090FE99
:100F700080230135F61B5B009D42E1D1C3E02828A8
:100F80000AD1664D287B664B8200FC10D158013493
:100F9000FFF7FAFD2C73B6E0292802D15F4B9F6062
:100FA000B1E02A2805D15630441A5C4BA4001C82BB
:100FB000A9E02B280BD1594D0135E87F584B820011
:100FC000FC10D1580134FFF7DFFDEC779BE02C28B3
:100FD00002D1524BD96196E02D2805D15330441AE5
:100FE0004E4BA4009C848EE02E280BD14B4D343503
:100FF00028784B4B8200FC10D1580134FFF7C4FD18
:101000002C7080E02F2802D1444B19637BE03028FC
:1010100005D15030441A414BA4001C8773E01628B8
:1010200005D102380C0044433C4BDC636BE0030009
:10103000173B012B10D8581E8341364AD800101890
:1010400000231F2906DD01233F2903DD02235F2939
:1010500000DD0323C36756E01E2809D1314B002968
:1010600004D06230441AA4005C614CE059614AE04B
:10107000312809D12C4B1B6E002B02D13038FFF7E1
:10108000A5FB3900022029E0322801D12F3825E0C4
:10109000332805D1244B1B6E002B34D032381DE091
:1010A000342818D1214B552904DD1988204A0A40DB
:1010B0001A800AE080211A8889010A431A802A2F9F
:1010C00003DC19881B4A0A4003E080211A88490181
:1010D0000A431A8017E0352803D13138FFF776FB31
:1010E00011E036280AD1144A13884C119B04A4033A
:1010F0009B0C1C432404240C148004E0372802D1E8
:10110000481100F063FB05B0F0BC01BC0047C046CD
:101110001404000394030003140500039402000365
:10112000940100031406000314030003820000046A
:10113000FFDFFFFFFFEFFFFF88000004304B1B6E57
:1011400010B5002B31D00920FFF75CF80100092011
:10115000FFF71AFD0820FFF755F801000820FFF7F8
:1011600013FD0C20FFF74EF801000C20FFF70CFDDB
:101170000B20FFF747F801000B20FFF705FD0220C9
:10118000FFF740F801000220FFF7FEFC0A20FFF7FE
:1011900039F801000A20FFF7F7FC3320FFF732F897
:1011A00001003320FFF7F0FC27E00520FFF72AF8C5
:1011B00001000520FFF7E8FC1320FFF723F80100EA
:1011C0001320FFF7E1FC1220FFF71CF801001220AA
:1011D000FFF7DAFC0120FFF715F801000120FFF707
:1011E000D3FC3120FFF70EF801003120FFF7CCFCD3
:1011F000044A054B116B0B40136310BC01BC004744
:101200001403000394030003F8FF000070B5962256
:101210000D000400054B1A66FFF790FF2A0021001D
:101220000020FFF7EDF970BC01BC00471403000378
:101230000B4B70B58200D15005000C00FEF7E2FFA9
:1012400001002800FFF7A0FC21062800090E01F08C
:10125000A6FB0122034B5A6070BC01BC0047C0468C
:10126000940100035C2D0003F7B580228921344BE3
:101270001A80344B49421980F021334C0023C900B5
:10128000E162E1630F21314F23636363A363E3648E
:1012900023652F4E0133A264616462653B6651365B
:1012A000731E1D78002D05D031782800FFF7C0FF90
:1012B0000236F5E73D66FFF741FF3B00FD66FD673F
:1012C0008C339C371D603D60224B234F1C333E0006
:1012D0000193236601231C36E365BE6101F0D8FC4F
:1012E0001E4A1F4B1A8082221E4B1A801E4A1F4B19
:1012F0001A8080221E4B1A801E4B013AFF3A1A8038
:101300001D4B4532FF321A801C4B1D4A1E601D4B7F
:101310001A601D4A1D4B1A80019B1D4ABB611300B8
:1013200026664133E132591E0D701D705D70DD710E
:10133000DD7014339A42F6D1F7BC01BC0047C046B9
:1013400084000004800000049403000314030003DD
:10135000E02C000294060003140600030EF0FFFFC9
:10136000820000040201000406FDFFFF04010004E6
:1013700006010004080100040A010004C80000047A
:10138000A4000004CC00000440B6FFFFD20000041B
:1013900094020003F0B585B001F07AFC88488949D1
:1013A000828B0B889B1A1B041B0C07000191822B5C
:1013B00011D8019BFA8B1B8883499B1A1B041B0CB9
:1013C000824D8B4253D9824B2900D2182B00FA83CD
:1013D0004233E2313BE07F4B1C00002583328283A5
:1013E00003937034231F1B68002B04D10135103484
:1013F000042DF7D1DDE72668774B9E42F6DC1920F5
:10140000FEF700FF7F23181A8023C00101308619E0
:101410005B029E4201DC266002E080235B022360C7
:101420000126039B9B6E701E0293984203D00228F4
:1014300000D1BDE004E0002D02D10021FEF78CFFB9
:10144000042ED3D00136ECE714338B4205D01A7842
:101450007E2AF9D801321A70F6E75E4A136E002B25
:1014600005DD013B1366002B01D1FFF767FE5B4BE7
:101470005A69019B396A1B885B1A1B041B0C934237
:1014800003DB8A183A6201F015F92C00A268002AE1
:101490002FD0019BE0891B88218A1B1A1B041B0C7F
:1014A0008B4227D3237901331B0640181B0EE081A2
:1014B0002371180604D4402B05D02068821803E05D
:1014C0002068821A00E00022267B226032000D3A5A
:1014D000022A06D81F22134203D0C8235B00994278
:1014E00008D93000FEF78EFE01003000FFF74CFBFC
:1014F00000E022603A4B1434A342C7D1394B9B68B9
:10150000002B03D1384AD36013612DE0019AB98CC6
:101510001288521A1204120C934225DCCB18B86AB6
:101520000021BB84FFF714F9041E0BDB14232900F0
:101530001800604340310A185278415C0120FFF7DF
:101540005FF8BC620121F86AFFF702F9041E0BDBA9
:10155000142329001800604340310A185278415C76
:101560000220FFF74DF8FC6201F092FBE96B0029C5
:1015700022D0019B3A6B1B889B1A1B041B0C9942BF
:101580001ADC8A183A632A00E03540321378002BBF
:101590000AD0D378002B07D05378013B1B061B0ED3
:1015A000537001D11370137114329542EED103E0E0
:1015B000022D00D046E740E705B0F0BC01BC004773
:1015C00014070003000100041D050000940200033D
:1015D0001E05000014030003FFFF000014060003B3
:1015E000D00200035C2D000314040003172806DD5D
:1015F000602806DC1838044B8000C05802E003481D
:1016000000E003487047C046942D00027B6B6100E8
:10161000ADDE5A182823172808DD602805DC044BA6
:10162000183840001818038C00E0024B180070476F
:10163000942E0002EE070000A022034B1A80034BF9
:101640009F3A1A807047C046000200040802000456
:10165000002370B580260C4D0C4C2B802388334220
:1016600002D000F045F805E020262388334203D05D
:1016700001F016FB268001E02388238001232B80C4
:1016800070BC01BC0047C04608020004020200040E
:1016900010490A68486830B50F4B904204D10022C7
:1016A00001201A60404212E01D001078843501329A
:1016B0000A601C1DAA4200D10C601A68013A1A6027
:1016C000064A546819688C4201DA1B68536030BCC2
:1016D00002BC0847682D00034C070003CC07000339
:1016E0000022024B58685A607047C046CC0700037E
:1016F000174B18495A68087830B51070501C164AB4
:10170000150084355860141DA84200D15C60106833
:10171000013010609A68D868904202D1FE230B8095
:101720000EE0107808800D490800013288319A6077
:1017300008308A4200D19860094A9368013B93605F
:101740008021084A13880B43138030BC01BC00473A
:10175000682D00032A0100044C070003CC07000396
:101760004C0800032801000410B5FFF791FF431C4B
:10177000FBD00006000E10BC02BC084710B50C4B95
:101780009A681C007E2AFBDC0A490B4ACB68187059
:101790001000013388320830934201D0CB6000E062
:1017A000C860A3680133A36010BC01BC0047C046F9
:1017B0004C080003682D0003CC0700038122024B74
:1017C000D2011A607047C04628010004014BD8605E
:1017D0007047C0464C080003F8B5FFF759FF0500F5
:1017E00000206B1C00D157E1AD4CFF2D05D1237CAF
:1017F000834208D1013020744EE1FE2D03D1237CB9
:10180000002B00D19FE000272E06360E30002774F3
:1018100000F0B0FA637CBB4202D0F72D00D092E01A
:10182000F82367742B40F82B00D18CE06369E21831
:101830001676002B54D12B0609D4E37F002B03D05E
:1018400023766676012301E001235B426361217EFA
:10185000EF2904D86369013303D0E17708E0F72961
:1018600006D86369013303D00023E377013B63614A
:101870000F200B00142681432176E1680340080005
:101880007043884D40590133621CD377834201D1A4
:10189000012324E0E168080070432818406883426F
:1018A00001D102231BE0E16808007043281880681A
:1018B000834201D1032312E0E16808007043281835
:1018C000C068834201D1042309E0E068310041434C
:1018D000691809698B4201D10A2300E0FF23D377FD
:1018E00063690133072B00DD07236361237E102228
:1018F00019009143802936D16269032A00D080E023
:101900000022802B00D1A276651C6261617EA27EDE
:10191000E87F00F07DFF002815D1ED7F012D05D176
:10192000607EA17EFEF786FF2800B5E0022D04D17F
:10193000A17E607EFFF776F805E0032D05D1A17E3C
:10194000607EFFF763FC0120A6E0042D04D1A17E98
:10195000607EFFF7DDF8F6E70A2DF4D1A17E607E08
:10196000FFF7C8F8EFE7A02B05D16369032BEAD195
:1019700000236361E7E7B02B3DD16369032BE2D11C
:10198000607E7B2801D0782828D10025631CDB7F6E
:10199000012B04D100212800FEF74CFF1AE0022B96
:1019A00004D100212800FFF73DF813E0032B04D1F8
:1019B00000212800FFF72AFC0CE0042B04D10021B1
:1019C0002800FFF7A5F805E00A2B03D10021280025
:1019D000FFF790F801357F2DD8D1C9E7631CD97F77
:1019E000A67E00F07FFC051EC2DD3100FFF720FC63
:1019F0003100280039E0C02903D16369022BB7D038
:101A0000A1E7E02B3ED16369032B9CD1A57E637EC9
:101A1000ED01ED188023DB019D4200DD1D00631CFC
:101A2000DB7FED11012B06D129000520FFF700FC1B
:101A30002900052019E0022B06D129000620FFF716
:101A4000F7FB2900062010E0032B06D1290008200F
:101A5000FFF7EEFB2900082007E0042B08D129003E
:101A60001020FFF7E5FB2900102000F00BFF7FE7B7
:101A70000A2B00D07CE729000720FFF7D9FB2900BB
:101A80000720F2E7F02B00D05DE76069012800D065
:101A900059E7002360746361F8BC02BC0847C04684
:101AA0004C080003442F0002D3079B1A4901C918B0
:101AB000C02310B54000DB04C0181378002B05D0FC
:101AC00054186400203B23520132F6E710BC01BCDD
:101AD000004770B505000C00161E04DB124B9A423D
:101AE00002DD1E0000E000263000002804D00A219C
:101AF000013501F0E5F8F8E7C023640164196400DA
:101B0000DB04E41830000A2101F0D2F830000D00A7
:101B10000A2101F0D5F8103525800600023C002886
:101B2000F0D170BC01BC00470F270000C023490161
:101B300008184100DB04C9180F2330B50A4D1411F1
:101B40001C402C5D1340203C0C80EB5C074C41009A
:101B50000919203B0B80064B4000C018002303806E
:101B600030BC01BC0047C0463C3700020200000602
:101B70000400000670B5140000256268002A0AD02F
:101B800026789E4204DD9D4202DCFFF78DFF02E0D5
:101B900008343500F1E770BC01BC0047F0B5694B73
:101BA00091B002A81900020070C970C270C970C259
:101BB0000968116009A90A001C3332CB32C232CB4A
:101BC00032C200211B6813605F4B604A19800233E8
:101BD0009342FBD1002704243D005D4B1B689B0012
:101BE000C25803210020FFF75FFF0097594B1B6885
:101BF000DB199A68564E002A66D0326809A892000E
:101C00001258598854480A4205D0814200D196E0C2
:101C1000824207D156E0824200D190E0002A51D1A1
:101C200000294FD17168A2018D4208D11978B160A5
:101C300019790091C021C9045218642103E0C02120
:101C4000C904521800211180DE681878002E08D0CF
:101C5000FEF7EAFD3200030021000120FFF78AFFB2
:101C600026E0FEF7E1FDC30F1818C02361266201CC
:101C7000511CDB0440104900CE520300403B01934D
:101C80006D239C460232C0265300F6049B1966461B
:101C9000082804D06226072801D8060065361E8071
:101CA000019B083801329842EDD163222B4BCA5276
:101CB000284B1B68DB1921009A680C20FFF7F4FE03
:101CC00001340135103791E773689D4203DC244BE2
:101CD000726064325A807368002B06DA6B1E736080
:101CE000194BAD01ED1864232B8001341D4A2100EE
:101CF0000020FFF7D9FE009B002B05D01A00210021
:101D00000D20FFF7E6FE04E0174A21000D20FFF743
:101D1000CBFE2100154A1220FFF7C6FEB068FEF781
:101D200083FD210002001720FFF7D3FE104A132184
:101D30000020FFF7B9FE11B0F0BC01BC00478A4299
:101D4000C0D16FE704370002C0000006000500069E
:101D500070080003782D0003FFFF0000120000064A
:101D6000FE0000064D3700025B3700025F370002BD
:101D7000653700020D4B0E49DA6888540132502A4B
:101D800000D10022DA601A69D9688A4201D1013291
:101D90001A611A69502A01D100221A610121054AEB
:101DA00011605A6952185A617047C04670080003A2
:101DB00044010003400100030021F8B51E4A1F4BF7
:101DC000198002339342FBD11D4C2369E268D21A79
:101DD000072A02DC07221A409B184F2B00DD002344
:101DE00004260025E268934210D0164A5F1CD25C9C
:101DF00031002800FFF79AFE4F2F00DD0027033542
:101E0000182D01DD002501363B00EBE76369202B2F
:101E100004DDFFF765FC0023A06163610A4A0F211E
:101E20000020FFF741FEA2690F211020FFF77EFE80
:101E3000F8BC01BC0047C04600050006C000000613
:101E40007008000344010003803700020021F8B548
:101E5000444A454B198002339342FBD1434A032144
:101E60000A20FFF721FE424A04210020FFF71CFE52
:101E700000F07AFA042102120720FFF72AFE00F090
:101E800073FA0206120E04211320FFF722FE052426
:101E90000427651F280000F07FFA661C012845D042
:101EA000344BDA69A301AA4204D1C022D2049B18A0
:101EB000642203E0C022D2049B1800221A80072D5E
:101EC00005D0221F21000120FFF703FE04E02A4A6B
:101ED0000C210220FFF7E8FD280000F05DFA8307DF
:101EE00004D5264A21000920FFF7DEFD280000F076
:101EF00053FA384204D0224A21000420FFF7D4FDCF
:101F0000280000F049FA030704D51E4A21000420E6
:101F1000FFF7CAFD280000F03FFAC30604D51A4AAD
:101F200021000F20FFF7C0FD3400B2E700F029FACE
:101F3000310002120020FFF7CCFD3100134A0320CC
:101F4000FFF7B2FD00F01DFA02063100120E042068
:101F5000FFF7BFFD0E4A13210020FFF7A5FDF8BCD7
:101F600001BC004700050006C00000068E370002D5
:101F70009837000270080003B5370002B737000237
:101F8000BD370002C1370002C6370002CC3700025D
:101F9000CE370002002170B5174B184A1980023362
:101FA0009342FBD1164A03210520FFF77DFD002453
:101FB000651D144A290001200134FFF775FD220038
:101FC00029000620FFF785FD082CF1D10E4B196A78
:101FD00007230B40053364229B01214201D10B49A9
:101FE00000E00B495B181A8013210A4A0020FFF712
:101FF0005BFD70BC01BC0047C00000060005000688
:10200000EC370002FE3700027008000314000006DF
:102010002000000613380002F7B501218C4B1B8805
:102020008C4C0B4039D0636A8B4200D10CE18A4B57
:102030001B880193002318009C466162019E0641A3
:102040000E4007D02200654628329D5022005032B3
:102050009D5016E0270025002837DA590132DA5161
:102060005035012A01DCEE500BE0022A01D1EA5082
:1020700007E0162A04DD0222EA501232DA5100E0AB
:10208000E950013004330A28D8D1E36D022B06D180
:10209000A36F5A425341A36701E06362D4E0636FC8
:1020A000022B06D1236F012B03D1E36F5A42534118
:1020B000E367A36D022B04D1684A136859424B4170
:1020C0001360E36F002B0ED0236D022B02D0636DE3
:1020D000022B02D100232361E3600022604B1A60CF
:1020E000FFF76AFEB0E0A66F002E2DD0A36E022B84
:1020F00002D1236A013B2362E36E022B02D1236AE1
:1021000001332362636E022B02D1236A08332362F8
:10211000236E022B02D1236A083B2362236D022B1C
:102120000BD10720236A18401A0702D400F078FC6C
:1021300001E000F063FC0023A3670F23226A134031
:102140002362FFF727FF7FE0444B1D68002D39D045
:1021500000F070F9A36E022B05D1E369013B01D4B5
:10216000E36100E0E661E36E022B09D1E369581CEC
:10217000E06100F011F9012802D1E369013BE3615C
:10218000636E022B02D0236E022B02D1E06900F0B5
:1021900095F9236D022B02D0636D022B0FD100F055
:1021A000DDF8431C02D000F093F908E0236D022B08
:1021B00002D100F075F902E0E06900F043F9FFF7A1
:1021C00045FE41E0FEF728FB236D022B08D1236872
:1021D0000133062B01DC236000E0256000236360EF
:1021E000636D022B06D12368013B00D506232360D3
:1021F00000236360A36E022B02D16368013B63601E
:10220000E36E022B02D1636801336360236E002BFF
:1022100002D1636E002B15D0A068FEF705FB236E7C
:102220005A1E9341C118636E5A1E9341C91A03D4B2
:102230007F2902DD7F2100E00021A068FEF7F8FF82
:10224000FEF7EAFAFFF7AAFCF7BC01BC0047C0465C
:10225000040000047008000330010004F0080003CB
:1022600040010003802280235200DB0410B51A6075
:10227000134BF83A1A800023124A1380124A13486B
:102280001380134900F04CFBA0231248124ADB04D0
:10229000FB2109065918415A198002339342F7D19C
:1022A00000210E4A0800FFF7FFFB0D4A0121002024
:1022B000FFF7FAFBFFF772FC10BC01BC0047C046F9
:1022C0000800000410000004120000040080000652
:1022D000942F0002FA360002200000052A3800027E
:1022E0004938000201228A40084B1B68996800297E
:1022F00009D059880A4204D01979814201D118784D
:1023000003E01033F2E7012040427047782D0003CC
:10231000002310B57F240B4A13600B4A13605360EF
:10232000936011000C31585811002C31002801D055
:10233000CC5000E0C8500433202BF2D110BC01BCBB
:102340000047C04614320003F4080003024B800229
:102350004C3318187047C046F4080003014B186846
:102360007047C0461432000310B52020FEF75CFA17
:1023700004001F20FEF758FA2402201810BC02BCEB
:102380000847044B5A689B68501C01330002C01870
:102390007047C046F408000370B50123072829D808
:1023A00016490D0083024C35EB181B79033B5C4248
:1023B0005C41134A166863008400013614D05268E9
:1023C000904201D104220CE0022213420BD10A19DF
:1023D000D26AC0018018C00028180279032A03D0ED
:1023E0000822134300E013000919CA68002A01D02B
:1023F00010221343180070BC02BC0847F408000305
:102400001432000330B58025002203240849AD01B1
:102410004C310023D018081804718020C0001B180C
:10242000AB42F7D108328242F3D130BC01BC004745
:10243000F40800030022024B98689A607047C04677
:102440001432000300220A4B10B5DA640332503311
:10245000084C1A71084B60604C33800218180271E6
:10246000FFF756FF0123A36010BC01BC0047C04624
:10247000F428000314320003F4080003064B800222
:102480004C3318180379032B04D903230122037159
:10249000024B9A607047C046F408000314320003F0
:1024A000012310B5044C5B426360FFF731FF012349
:1024B000A36010BC01BC004714320003034B800032
:1024C0001818C3685A425341C3607047F4080003A8
:1024D000F0B5002485B020000021FEF7ABF9200004
:1024E0000021FEF79FFA20000021FEF78FFE20005A
:1024F0000021FEF70DFB200000210134FEF7FAFA5F
:102500007F2CE8D10025664B21201D65FEF78CF954
:102510002120FEF789F91F23203883426D412120B5
:10252000FEF782F940386D011F2800D84025212090
:10253000FEF77AF960381F2800D88025594B5B6870
:10254000013300D1A0E000246B100293564BDE6CE7
:10255000B44200DB8AE0554A01920122190052423E
:10256000009200225031B2420CDAD700C81900792B
:10257000032805D07F580198B84201D901970092ED
:102580000132F0E71900009A5031D2008918087919
:102590009B18012840D1C97900293DD0186D290028
:1025A00000F086FB029B994200DD491B2220CE01F0
:1025B000FEF73AF90100300000F082FB009B3A4F31
:1025C000D9007B181E6DFB6C019350239C462200A2
:1025D000E300BC4404330397361A63446144019F0B
:1025E000BA421ADA1F78012F13D1DF78002F10D1E9
:1025F0004F79BC465F78BC450BD18F79BC469F783C
:10260000BC4506D1039BD700DF193B6D181A38650E
:1026100003E001320833E2E71E6D1F20FEF704F9E4
:1026200007002020FEF700F94743FF01BE42BF41EB
:102630001C4B5B68DB011E491B19DA008B183E40FE
:10264000DE640B004C339B181749009AD0000A0037
:102650005032121811791971517959719179997112
:10266000D179D9710323013413716FE70D4B586889
:10267000C3011C1903230E49E4004C310C192371CA
:102680008302C91800F0A6F90122064B52425A6093
:102690001A6002329A6005B0F0BC01BC0047C04627
:1026A000F42C000314320003F4280003FFFF0000A1
:1026B000F4080003F7B5534D2B680026013300D111
:1026C0009CE0B3000093504C2300009A2C33D35865
:1026D0009C462200F30163444C32DB00D21811798E
:1026E000032956D0E318DB6C2868834251DC6B6801
:1026F0009E424ED001293ED19079D779072E07D13D
:10270000424B1A6D002A01D19A6D5A655B6DC01853
:102710007F2800D90020F2011300210063444C31CE
:10272000DB00CB185B79012B03D13900FEF782F86F
:1027300016E0022B03D13900FEF774F910E0032BE9
:1027400003D13900FEF762FD0AE0042B03D1390002
:10275000FEF7DEF904E00A2B02D13900FEF7CAF9D0
:102760002A4B1A6D072E03D1002F01D1013A00E048
:1027700001321A6505E0022903D191795079FEF7FB
:1027800057FD009B2C341B59009A019301331351C0
:1027900099E70136082E94D12B6801332B6023680A
:1027A000013323607F2B18DD01230026AB60A36873
:1027B0001F200133A3602660FEF736F8A368984215
:1027C0000BDC6368202001336360A660FEF72CF801
:1027D0006368984201DCFFF79BFD6B6801330DD005
:1027E0002368002B0AD1A3681020002B04D1636852
:1027F0002020002B00D00820FEF785F9F7BC01BC93
:102800000047C04614320003F4080003F42C000310
:10281000F7B5060023200C000192FEF705F8A04250
:1028200008DD2420FEF700F8134B20184C3898657B
:1028300001201DE0114B5A680020013218D01B689E
:10284000834215DB0E49CA6C7E2A11DC571CD2006C
:102850008D18CF6450312B658B1801221A716A468E
:102860001279DA7103225E719C71FB00CB181A7128
:10287000FEBC02BC0847C046F42C0003143200031F
:10288000F42800030E4B5A6870B5013215D01D684C
:10289000002D12DB0B4AD36C7E2B0EDC5C1CDB00A4
:1028A000D61835650225D4645032D3181D7158717D
:1028B00099710323E4001219137170BC01BC004725
:1028C00014320003F4280003064A136859100878EC
:1028D000D90701D4000901E00F210840013313603A
:1028E0007047C046502D000330B5012103250B4C25
:1028F000626853108B43154001D1000108E019882C
:10290000012D04D0022D01D1000300E00002084394
:1029100001321880626030BC01BC0047502D0003BA
:10292000114B4000490070B558601960FFF7CCFFAB
:10293000041E16D008280ADCFFF7C6FF0025060093
:10294000A542F3DA3000FFF7CFFF0135F8E70125A4
:10295000073CFFF7B9FF0135FFF7C6FFA542F8D1E5
:10296000E4E770BC01BC0047502D000310B5040023
:102970000220FEF703FF2006000EFEF7FFFE2012E6
:102980000006000EFEF7FAFEFEF7EEFE0228FBD16F
:10299000FEF7EAFEFEF7E8FE10BC02BC08470C4B4F
:1029A0001B6870B504000D00002B0ED10120FEF74E
:1029B000E5FE2006000EFEF7E1FE20120006000EE6
:1029C000FEF7DCFE2800FEF7D9FE70BC01BC004714
:1029D000582D000310231843000670B5000E0C009C
:1029E000FEF7CCFE8023DB00E51820780134FEF7EB
:1029F000C5FEAC42F9D170BC01BC004770B50024E3
:102A000085012000FFF7B2FF2B00413301001819A8
:102A10000134FFF7C4FF402CF3D170BC01BC004768
:102A200070B500248501280041300019FFF79EFF92
:102A3000010020000134FEF7FBFB402CF3D170BCF9
:102A400001BC0047F8B5294B1A880C231A424AD01A
:102A5000FEF78AFEFEF788FEFEF786FEFEF784FE8E
:102A60000020FFF783FF0124A5282DD1204B1D0056
:102A70001C602000FFF77AFF010020000134FEF700
:102A8000D7FB402CF5D1002420272C6020003E00ED
:102A9000FFF75CFC264305003006000EFEF76EFED5
:102AA000FEF762FEB042FBD18023DB00EE18FEF79A
:102AB0005BFE28700135B542F9D120000134FFF7E3
:102AC000DDFC082CE2D10EE0A5210020FFF767FF16
:102AD0002000FDF7A9FE0106090E20000134FFF7D2
:102AE0005EFF402CF4D1F8BC01BC0047300100046B
:102AF000582D0003000051E34300000A01C020E00C
:102B000000106142012051E22700000A0030B0E1CC
:102B100000306042010053E12600009A020011E1FA
:102B20002800000A0E0211E38111A0010820A00371
:102B30000120A013010251E3030051310112A03121
:102B40000222A031FAFFFF3A020151E303005131A2
:102B50008110A0318220A031FAFFFF3A0000A0E3EB
:102B6000010053E10130432002008021A10053E124
:102B7000A1304320A2008021210153E121314320D3
:102B800022018021A10153E1A1314320A201802132
:102B9000000053E32222B0112112A011EFFFFF1A0F
:102BA00000005CE3000060421EFF2FE100003CE1FA
:102BB000000060421EFF2FE10000A033CC0FA001F7
:102BC000010080031EFF2FE1010851E32118A0211D
:102BD0001020A0230020A033010C51E32114A021D8
:102BE00008208222100051E32112A0210420822219
:102BF000040051E303208282A120829000005CE364
:102C00003302A0E1000060421EFF2FE1000050E30C
:102C10000201E0C30201A0B3070000EA000051E393
:102C2000F9FFFF0A03402DE9B3FFFFEB0640BDE8C3
:102C3000920003E0031041E01EFF2FE11EFF2FE191
:102C4000920101E030002DE9931021E0904285E0EF
:102C50000400A0E1051081E03000BDE81EFF2FE177
:102C600010B5FEF7E9FCFEF7FFFAFFF7CBFBFEF726
:102C7000A5FDFFF7E7FEFFF7F5FAFEF7ADFD00282B
:102C8000FBD1FEF787FBFFF7C7F9F6E7FFFFFFFF72
:102C90007847C04600C09FE51CFF2FE101000003FC
:102CA0007847C04600C09FE51CFF2FE1E500000308
:102CB0007847C046D8FFFFEA7847C046DFFFFFEA03
:102CC0007847C0468AFFFFEA0000000303030302BF
:102CD0000202040404010101000306090C0F12158D
:102CE000181C1F2225282B2E303336393C3F4144F7
:102CF00047494C4E515355585A5C5E606264666851
:102D00006A6C6D6F70727375767778797A7B7C7C7C
:102D10007D7E7E7F7F7F7F7FFFFF0000FFFF0000C3
:102D2000FFFF0000FFFF0000048CC840048CC84077
:102D3000048CC840048CC84002468ACE02468ACE23
:102D400002468ACE02468ACE000088880000888823
:102D50008888FFFF8888FFFF888F0000888F000029
:102D6000888F0000888F0000A8868664866464428D
:102D70008664644264424220F8F8F8F8F8F8F8F8FB
:102D80008080808080808080893274580823462328
:102D90001726346952764010054006400840074027
:102DA0001040017F1A64033C0400117F127F133F1F
:102DB0001420157F027F0C3F0B7F09000A2C0D7F2A
:102DC0000F000E7F160A19401732182828202900F4
:102DD0002A6E2B2B2C002D4E2E002F00301C1E4057
:102DE0001F0420042140227F23002414314032405C
:102DF00033403440354036000000FFFF4AF9C3003D
:102E000083A0CF001FF9DB00AD0DE90058E9F60003
:102E1000F79705011726150100A12501C8163701EE
:102E20005A964901832F5D0101F3710194F28701E4
:102E300005419F013FF2B7015A1BD201B0D2ED010B
:102E4000EF2F0B022D4C2A0200424B02902D6E02F6
:102E5000B32C9302055FBA0203E6E30228E50F03F1
:102E60000A823E037DE46F03B336A4035FA5DB0350
:102E7000DD5F16045B98540400849604205BDC0438
:102E8000665926050ABE740506CCC7054FCA1F063B
:102E900014047D06FBC8DF06666D4807BE4AB70707
:102EA000BABF2C08B530A90800082D0941B6B809E9
:102EB000CDB24C0A147CE90A0C988F0B9E943F0CFF
:102EC0002808FA0CF691BF0DCDDA900E7C956E0FA6
:102ED000747F59106A61521101105A12816C71137A
:102EE0009965991428F8D21517301F173C297F18B7
:102EF0005010F419EB237F1B9AB5211DF82ADD1E13
:102F0000E9FEB220D4C2A4220220B42402D9E226CF
:102F100033CB322951F0A52B2E603E2E2C009C0085
:102F200006016B01C90123027702C6021203560390
:102F30009B03DA0316044E048304B504E50411056B
:102F40003B0563058905AC05CE05ED050A06270698
:102F500042065B06720689069E06B206C406D606BF
:102F6000E706F7060607140721072D073907440768
:102F70004F07590762076B0773077B0783078A07A9
:102F8000900797079D07A207A707AC07B107B607E9
:102F9000BA07BE07C107C407C807CB07CE07D107CA
:102FA000D407D607D907DB07DF07000001000000C0
:102FB0000200000003000000040000000A000000FE
:102FC00001000000020000000300000004000000F7
:102FD00005000000050000000600000007000000DA
:102FE00008000000090000000C0000000D000000B7
:102FF0000E0000000F000000100000008484848494
:103000008484848484848454A0464A0464A048460A
:103010004A04848434C040444C04048484848484FA
:1030200044C040444C04044440B404D40404444028
:10303000B404D4040444C04048474A0434B040A017
:10304000444C040434B040A0464C0404C4040A04B4
:1030500064A04848484342034A04A402084A04348E
:10306000C0404B404242024A04848444A0434C0482
:103070000474A0434C040444C040474C04048484BA
:10308000B404B40464A0434A04848484848484B46F
:103090000434A0464A0464A0484B40484848434A88
:1030A0000484B40464A0464A0434A0484848474213
:1030B000054A04B404344044A04B40444208484804
:1030C000484A0464A043440B40444A0464A048486E
:1030D000484848484542074A0434A04848484848B8
:1030E00046440848484848484848444A04B40434D8
:1030F000A04B40484848484A0434A0474A0434A0FA
:10310000474A04848484A0434C040444C040444C93
:10311000040444C040474A04848464A0434A04B47D
:103120000464A0464A0464A0434B040A0484843423
:10313000A04B404442074A0474A0434A04644084BC
:103140008444A04B404442084A0454A04542054AE6
:1031500004B404848464A0434A04B40444C04043D7
:1031600044074A0464A048484344054A045420B430
:103170000454A04542054A04B404848434A04B405E
:10318000444A0464C04043430642054A04B40484EC
:1031900084344064A0474A0464A0434A0464A048BD
:1031A00048464A04B404442054A04B4044420642DA
:1031B000054A04B404848434A04B404442064304CA
:1031C0004C040464A0444A04B40484848434A04BB2
:1031D00040434A04B4048434A04B40434A04B4043A
:1031E0008484845420642084642074A04848484522
:1031F0004A0474A0434A0484B40454A0484848488C
:10320000444408444408484848444A0484B40454A4
:10321000A0474A0434A04848484B40434C04046447
:10322000A0474A048464A0484542044A0434A042AA
:1032300042024A0424E04040424E04040424205444
:10324000A04848464A04B404442064205440542012
:10325000642084845420B40444205420B4044420C2
:1032600064205420B404848434A04B404442064A71
:103270000464A04642054A04B40484843420B4049F
:1032800044206420642064205420B40484843440A6
:1032900054A045420B40444A0464A04544084844B5
:1032A00044054A045420B40444A0464A0464A04897
:1032B00048454A04B404442064A046430542054BF3
:1032C000040A04848444206420544054206420640C
:1032D00020848454B040A0464A0464A0464A046452
:1032E000A0434B040A048484542064A0464A046426
:1032F000A04542054A04B4048484442064C0404389
:1033000042074C040444C04044420848464A04640E
:10331000A0464A0464A0464A04544084845420547D
:1033200040444054206420642084846420543054F9
:1033300040543054305420848454A04B40444206BE
:103340004206420642054A04B40484843420B4048C
:10335000442064205420B40444A0464A0484845485
:10336000A04B404442064205430643044A04B404C9
:1033700084843420B404442064205420B40444C021
:103380004044420848454B040A0444A0464A0454B9
:10339000A04B40454A044420B40484843440B4041F
:1033A00044A0464A0464A0464A0464A048484442F3
:1033B0000642064206420642054A04B40484844496
:1033C0002064206420642054A04B40434A04B40489
:1033D00084844420642064205440444054208484E5
:1033E0006420642054A04B40434A04B40444206445
:1033F00020848464A0424A0424A0424A04D40404E1
:1034000074A0464A0464A048484344064A0474A091
:10341000434A0474A045440848444B040A0434A0B9
:10342000464A0464A0464A0464B040A04848484460
:103430004A0454A0484B40454A0484B4048484C4DC
:10344000040A0454A0464A0464A0464A0444B04016
:10345000A04848464A0434C040484848484848487C
:1034600048484848484848444A04B40434A0484BB3
:103470004048484848484848434B040A04442064AC
:103480003044C0404848454A0464A045420B40448B
:1034900042064205420B4048484848434B040A0450
:1034A00044A0464A0454B040A04848454A0464A099
:1034B000444B040A044420643044C040484848480F
:1034C000444A04B4044430442064B040A048484610
:1034D0004A0434C040444A046420B40434A0464A38
:1034E000048484848464B040A04442054B040A04EC
:1034F00054A04848454A0464A045420B4044420653
:103500004206420848484A048434A04B40464A04D4
:1035100064A0434B040A04848454A048464A0464CB
:10352000A0464A0444C0404848454A0464A0464274
:1035300005420B40444206420848454A04B404642C
:10354000A0464A0464A0464A0434B040A048484813
:10355000484343064E04040424E04040424A042405
:10356000A048484848424C04043430642064208415
:1035700084848454A04B4044420642054A04B40467
:10358000848484843420B40444205420B40444A0AB
:1035900048484848454B040A04442054B040A045DC
:1035A0004A048484848454C0404343064A0464A08B
:1035B00048484848454B040A04342084204420B439
:1035C00004848434A0464A046420B40434A0464CE5
:1035D000040474A048484848444206420643044C48
:1035E00004048484848444C040444C040444C040A3
:1035F000474A048484848444A0424A0424E040402E
:10360000424E040404C4040A048484848444205480
:10361000A04B40434A04B40444208484848464203E
:10362000642054B040A0454A048484848444407497
:10363000A0434A04644084642044A0484B40434271
:10364000084B40434A048420848474A0464A04649E
:10365000A0464A0464A0464A048434A04B40454A2C
:103660000474A0454A04B40444A0454A0444A04B51
:10367000404848434C040454C040484848484848DF
:1036800048484848484848484848484848484847BB
:103690004A0464B30434A04B43434A04B43434A012
:1036A0004B43464A0454A0484808484848484808FC
:1036B0004B40454A04B43454B30454B30454B304E3
:1036C00034A04B43434B3048454206420B404344F1
:1036D00004440B404A40304420B4043420846480C5
:1036E00084B414542174A14845480848084A146415
:1036F00021B41434A1484648084808434A1434B158
:1037000041A1464A1484348084808424A146421B0B
:1037100041434A1484448084808454A1434B141A46
:103720001464A1484A407084808444A146421B41ED
:10373000434A1484248084808474A1434B141A1453
:1037400064A14748084808464A14642164A14848CF
:1037500008480848464A1484848084848484848485
:1037600084000000004010006B2DFF7F68380002CD
:10377000753800028538000296380002A43800022D
:10378000B43800028E37000202000000040000007E
:10379000080000001000000000040000FFFF00000F
:1037A0000000000030313233343536373839414289
:1037B000434445460053656C656374656420434328
:1037C0003A20006E2F610056616C3A2000412F4272
:1037D0003D505245562F4E455854205041474520A4
:1037E00053454C3D534551005365722070726573CB
:1037F000737572653A0053455155454E4345520025
:1038000052616E67653A202020206D656173206FDC
:1038100066202020202062656174732E00420065BE
:103820006D7074790052454300504C4159004D551C
:10383000544544002F004C2F523D4D5554452041D6
:103840003D504C415920423D5245432053454C3D4B
:10385000434353004C4F41442F534156452050524F
:103860004553455453005072657365747820202089
:103870004C4F414420205341564500413D4C4F415F
:10388000442F534156452053544152543D424143E5
:103890004B0020202020204742414D4944492042EE
:1038A00059205350524954455F544D202020202028
:1038B0000020202020202028535052495445534DA9
:1038C0004F44532E434F4D29202076312E36200071
:1038D0004D4944492031202844554F29004D494441
:1038E000492032202853414D504C4529004D494430
:1038F00049203320285357454550454429004D4918
:10390000444920342028504F4C5929004D494449FE
:1039100020313020284E4F4953452900474C4F4213
:10392000414C004172706567676961746F72207302
:1039300070656564005377656570207374657020E9
:1039400073697A6500537175617265207761766578
:10395000666F726D20706374004E6F697365204CE2
:10396000465352206C656E67746800447574792004
:103970006379636C650053616D706C652074797058
:10398000650044757479206379636C65206F6620E7
:103990007371207700537765657020737065656477
:1039A0000053617720776176652070637400446509
:1039B000636179206C656E67746800456E76656C2E
:1039C0006F7065206C656E67746800536F756E6408
:1039D000206C656E67746800476C697373616E6410
:1039E0006F206D6F646500476C697373616E646FFF
:1039F000206C656E6774680050616E004C464F31F4
:103A000020746172676574004C464F312072616E9C
:103A10006765004C464F31206672657175656E634F
:103A200079004C464F3220746172676574004C46D1
:103A30004F322072616E6765004C464F32206672CD
:103A4000657175656E6379004C464F332074617201
:103A5000676574004C464F332072616E6765004C99
:103A6000464F33206672657175656E6379004175E6
:103A700064696F2073616D702072617465004D49D7
:103A80004449206368616E6E656C730053706565B0
:103A900064004274732F6D656173004D65617375C9
:103AA000726573005175616E74697A6520746F0078
:103AB0005175616E74697A65207261746500426146
:103AC00073736C696E652073706C69740042617306
:103AD000736C696E65206F66667365740043683148
:103AE0002D342C3130004368312D35004368352D9D
:103AF0003900436831322D3136004C65667400431D
:103B0000656E746572005269676874003962697421
:103B10002F33324B487A00386269742F36344B4861
:103B20007A00376269742F3133314B487A0036623C
:103B300069742F3236324B487A0031322E352500E7
:103B4000323525003530250031312D62697400375A
:103B50002D626974006F666600312F34206D6561D7
:103B60007300312F32206D6561730031206D656106
:103B70007300717569636B7072657373006C656750
:103B800061746F00616C7761797300747269616E42
:103B9000676C6500327873717561726500737120AE
:103BA000676C746368006861726D6F6E0073717525
:103BB0006120616C740072616E646F6D00436831E6
:103BC0002064757479004368332064757479004EFD
:103BD0006F69736520626974730043683220736192
:103BE0006D706C65004368312070697463680043D0
:103BF0006832207069746368004E6F697365207065
:103C00007463680043683320706974636800537795
:103C10006565702076616C00537765657020737000
:103C200064005377656570206C656E005377656539
:103C30007020656E760043683420737172650043AE
:103C40006834207371206474004368342073617792
:103C50000043683420706974636800FFF0B5344B2A
:103C6000DB6D87B0002B5FD000230093304B009AB0
:103C70001B6E9B1803932F4B1D000024E13304930C
:103C80004135EB78042B27D16B1E1B780193002B59
:103C900022D02F002900EE1D0B3732683B680F3110
:103CA000D318336002919A420CD9214B5B6E059375
:103CB000059A10200A6000F061F80100019800F0F8
:103CC00065F83860029A336812681B0ED1562A785C
:103CD0000B005343DB11E418049B1435AB42D0D1E5
:103CE000154B1A6801321A60114B996E114201D0BE
:103CF000124AA4180321E2170A401419A4107F2CB9
:103D000005DC2200803203DA8024644200E07F2454
:103D1000039A2406240E1470009A01320092802A1D
:103D2000A4D10022DA659A6607B0F0BC01BC004756
:103D300094030003940200035C2D0003FF010000C4
:103D4000084B09491A6E88698A610121D9650021E9
:103D50001866064B1960064B1A60064A064B1A8015
:103D60007047C0469403000314060003D00000040B
:103D7000C800000440B6FFFFD20000047847C046E8
:103D800000C09FE51CFF2FE19D0100027847C0465F
:103D900000C09FE51CFF2FE1E9040002FFFFFFFFC9
:103DA000010000007A1400005007000350070003D0
:103DB000D4070003D40700037C2D00031A0006007B
:103DC0000C000000BB3800020000000009000800E1
:103DD0000C000000CD380002000000000D001000B3
:103DE0000C000000DD3800020000000003000004A9
:103DF0000C000000F1380002DC300003010002007A
:103E00000D00000003390002BC3000030400040070
:103E10000D0000000E3900024431000302000800CA
:103E20000D00000003390002BC3000030E0010003A
:103E30000D0000001A390002000000000A0008000E
:103E40000E0000002D390002000000000F001000DD
:103E50000E000000393900020000000016001000BA
:103E60004800000046390002000000001300020074
:103E70004900000053390002000000000C00080057
:103E80004900000053390002000000001400000443
:103E90004900000053390002000000001200020037
:103EA0004A00000063390002000000001100040015
:103EB0004A00000063390002000000000B00080007
:103EC0004A000000633900020000000015000004F1
:103ED0004A000000633900020000000017000200E1
:103EE0004B000000703900021C3100031800040070
:103EF0004B000000703900021C310003190006005D
:103F00004C0000007F390002000000003100020078
:103F10000A000000903900027430000332000400EF
:103F20000A000000903900027430000333000800DA
:103F30000A000000903900027430000334001000C1
:103F40000A000000903900027430000335000004BC
:103F50000A00000090390002743000032800FFFFBF
:103F600010000000943900028C3100032900FFFF8B
:103F700011000000A0390002000000002A00FFFF2D
:103F800012000000AB390002000000002B00FFFF10
:103F900013000000BA3900028C3100032C00FFFF2F
:103FA00014000000C6390002000000002D00FFFFD1
:103FB00015000000D1390002000000002E00FFFFB4
:103FC00016000000E03900028C3100032F00FFFFD3
:103FD00017000000EC390002000000003000FFFF75
:103FE00018000000F7390002000000003600FFFF53
:103FF00000000000063A0002943000033700FFFF83
:1040000000000000163A00024C3000031E000000C1
:1040100000000000243A0002000000001F00000021
:10402000000000002A3A000200000000200000000A
:1040300000000000333A00020000000021000000F0
:10404000000000003C3A0002F430000322000000AF
:1040500000000000483A00020000000023000000B9
:1040600000000000563A000200000000240000009A
:1040700000000000653A000200000000000000009F
:104080000000000000000000000000002000000010
:10409000753A0002400000007E3A00026000000015
:1040A000843A0002800000008A3A0002000000000A
:1040B000000000002B000000923A000255000000B2
:1040C000973A0002800000009E3A000200000000C3
:1040D0000000000020000000A43A000240000000A0
:1040E000AF3A000260000000BA3A0002800000000F
:1040F000C63A000200000000000000002B00000093
:10410000D23A000255000000D83A000280000000B8
:10411000DC3A000200000000000000004000000047
:10412000E03A000280000000E73A000200000000D0
:104130000000000020000000ED3A000240000000F6
:10414000F13A000260000000FA3A0002800000002C
:10415000033B0002000000000000000020000000FF
:10416000ED3A0002400000000A3B0002600000003F
:10417000153B0002800000001C3B00020000000014
:1041800000000000100000002E3B00022000000094
:10419000233B000230000000E53B0002400000002D
:1041A0002C3B000250000000353B00026000000084
:1041B0003E3B000270000000453B00028000000012
:1041C0004E3B00020000000000000000080000005C
:1041D000553B0002100000005E3B0002180000008A
:1041E000673B000220000000723B00022800000034
:1041F0007D3B000230000000873B000238000000D9
:10420000913B0002400000009C3B0002480000007F
:10421000A63B000250000000B03B00025800000026
:10422000BA3B000260000000C43B000268000000CE
:10423000CE3B000270000000D73B00027800000077
:10424000E13B000280000000E93B000200000000AA
:1042500000000000FFFFFFFFFFFFFFFF0100000065
:1042600011241FBECFEFD8E0DEBFCDBF21E0A0E01C
:10427000B1E001C01D92AF32B207E1F78AD320C48A
:104280000C940000209184003091850082179307E0
:10429000C8F7109285001092840008950F931F9321
:1042A000CF93DF93419A399890E080E0EBDF80EA8A
:1042B00090E0E8DF4298D0E0C0E031991DC080E591
:1042C00090E0E0DF3199F9CF80EA90E0DBDF00E1B8
:1042D00010E0D0E0C0E0D695C7953199D06880EA6B
:1042E00090E0D0DF01501109B1F780EA90E0CADF19
:1042F000429A389A409A0AC02196C13187E2D8077B
:10430000E4F2389A409A429ACFEFDFEFCE01DF9184
:10431000CF911F910F9108950F931F93CF93DF9328
:104320008C01419A3998409A3898429A90E080E0FE
:10433000A9DFC1E1D7E286B183708330D9F480E090
:1043400095E0A0DF389A399A4098419880EA90E049
:1043500099DFC0E1D0E000FF17C0419A80EA90E009
:1043600091DF169507952197B1F7419A80EA90E081
:1043700089DF05C080E590E085DF2197E1F6DF91D8
:10438000CF911F910F9108954198E8CFC5DF86CF57
:1043900081E0809381003A9A88B18F6088B908954E
:1043A000282F98E080E04AE127FF14C0429A220FAC
:1043B0004098342F3A95F1F7880F33998160409AED
:1043C000342F3A95F1F7915079F7E8ECF0E0319716
:1043D000F1F708954298EBCF1092820087B1856083
:1043E00087B988B18D6088B90895A0E8B0E0EAEF98
:1043F000F1E20AC38830910540F546968C01102FF2
:104400000027110F110F58018CEFB81A6E0191E8B7
:10441000C90ED11C91EF892E9FE3992ECE010196F2
:104420007C013C018EEFBCDFF70181937F01EC152D
:10443000FD05C1F7F894B301C801F401099578941A
:1044400000581F4FA016B10649F7C058DF4FEEE0E5
:10445000F7C20F931F93CF93DF93EC018C010A5E99
:104460001F4F102F0027110F110F8FEF99DF8C2F87
:10447000806296DFD0E0C0E0FE01E00FF11F849182
:104480008FDF2196C11584E0D807B1F7DF91CF9176
:104490001F910F9108951F93CF93DF93C82F813001
:1044A000B9F48EEF7DDF182F8EEF7ADFD82F8EEFE5
:1044B00077DF2D2F30E0322F2227210F311D682F7B
:1044C000C9010196EBD28C2FDF91CF911F910895F6
:1044D0008230B9F48EEF64DFC82F8EEF61DF90E099
:1044E000982F88278C0F911D0196D0D2D82F8FEF4F
:1044F00057DF82E055DF8C2F53DF8D2F51DFC1E076
:10450000E2CF082E000C990B887F99278031910506
:1045100039F4F894C7708C2F90E067DF7894EFCF70
:10452000809729F4C7708C2F90E093DFE8CFC0E02C
:10453000CACF14BC85E085BD16BC2DD18C010F3FC0
:10454000100729F486B5883C10F4209769F016BC52
:104550000F3F100779F48EEF23DF9DDF811107C035
:10456000209711F02197E9CFD0E0C0E0E6CFCAE074
:10457000D0E0E3CFC8018E5F9109029718F48FEF66
:104580000FDF89DF802FE8CF90E0982F8827092E52
:10459000000CAA0BBB0B816CAF6FBF6F8093000147
:1045A00090930101A0930201B093030108958F92AB
:1045B0009F92AF92BF92CF92DF92EF92FF920F93B2
:1045C0001F934B015C016A012091000130910101B0
:1045D000409102015091030163E775E684E69FE68E
:1045E000F6D16F5F7F4F8F4F9F4F609300017093A5
:1045F00001018093020190930301682579258A25A2
:104600009B252FE6622724E6722725E6822724E6EB
:1046100092270D2C000CEE08FF0800E010E020E0CF
:104620003EEF0C191D092E093F09602771278227CB
:1046300093271F910F91FF90EF90DF90CF90BF9045
:10464000AF909F908F9008950F931F9308EF1FEFE7
:1046500020E030E000930701109308012093090146
:1046600030930A0180930601709305016093040161
:104670001F910F9108958F929F92AF92BF92CF9208
:10468000DF92EF92FF928090070190900801A09036
:104690000901B0900A0120E230E06401C626B59419
:1046A000A794979487949695879577956795C0FE7C
:1046B00004C047E1842645EA94262150310969F770
:1046C0008092070190920801A0920901B0920A011C
:1046D000FF90EF90DF90CF90BF90AF909F908F9022
:1046E00008950F931F936627882799270091040147
:1046F00010910501012E000C220B330B600F711F6E
:10470000821F931F982F872F762F66278F6F9F6F9B
:1047100020910601620F711D811D911DACDF60911A
:104720000701709108018091090190910A011F9180
:104730000F9108951F920F920FB60F9211242F938D
:104740008F939F93EF93FF938091C600E0912B018D
:10475000F0912C01808380912B0190912C01019686
:1047600090932C0180932B0180912B0190912C012F
:104770008B52914030F08BE091E090932C0180932C
:104780002B01FF91EF919F918F912F910F900FBE71
:104790000F901F90189520912B0130912C01809142
:1047A0002D0190912E0128173907F1F0E0912D018C
:1047B000F0912E01808120912D0130912E012F5FEB
:1047C0003F4F30932E0120932D0120912D013091E8
:1047D0002E012B52314030F02BE031E030932E018E
:1047E00020932D0190E008958FEF9FEF08958BE0C7
:1047F00091E090932C0180932B0190932E01809354
:104800002D0188E98093C10087E28093C400109253
:10481000C5000895B0E0A0E0EFE0F4E2F9C07C014B
:104820008B01007F005F1F4FCEE1D0E0B4EFCB2EB5
:10483000DD24D39488EE93E0F6013197F1F70197E8
:10484000D9F782E092E6A2DD8230924711F02197FB
:1048500089F780E091E69ADDE701C054DF4F9701C8
:10486000F7018491482F50E0F2E0EF0EF11CF901BE
:104870003196E491F0E0FE2FEE27CF01FF0FAA0B57
:10488000BB0B842B952B82DDCE15DF0541F782E033
:1048900092E67CDD81EC93E679DD81EC93E676DDD2
:1048A0007C0172DE21EFE21A2DEFF20AC70199278F
:1048B00094666CDDC801B0E0A0E0805C9109A109BC
:1048C000B10942E0B595A795979587954A95D1F797
:1048D000C4975CDDBC018E2DB7DE50ECA52EB12C4B
:1048E000A016B10600F185E690E050DD85E690E087
:1048F0004DDDCFE1D0E004EF11E085E690E046DD4C
:104900008537910519F0219709F03BC086E690E0C4
:104910003DDDBC0190E080E0E4DECB0137DDCDB7CA
:10492000DEB7EAE091C0FE01C4908C2D90E0B0E0CB
:10493000A0E0319624913196E491CE2ED12CF12C29
:10494000E12C7601DD24CC24D22A8C299D29AE29A4
:10495000BF29FE013396E4916C017D01FE2AC70157
:10496000B60189DEA501C701B60121DE6B017C011C
:10497000CB010CDDC7010ADDF4E0AF0EB11C2496BB
:10498000AFCF88EE93E0F8013197F1F70197D9F7AF
:10499000B4CFFEDC80E797E124EF31E0F9013197F5
:1049A000F1F70197D9F760E672E46856704088E63F
:1049B00090E030DF11DD80E49FE124EF31E0F90188
:1049C0003197F1F70197D9F7789411DFB2DDDB0168
:1049D0008F939F930BD0BF91AF91A29F800D911D9C
:1049E000A39F900DB29F900D1124089540D0A59FD4
:1049F000900DB49F900DA49F800D911D11240895DA
:104A00002F923F924F925F926F927F928F929F92DE
:104A1000AF92BF92CF92DF92EF92FF920F931F93CC
:104A2000CF93DF93CDB7DEB7CA1BDB0B0FB6F8947D
:104A3000DEBF0FBECDBF09942A88398848885F84BD
:104A40006E847D848C849B84AA84B984C884DF802E
:104A5000EE80FD800C811B81AA81B981CE0FD11D12
:104A60000FB6F894DEBF0FBECDBFED010895A29F33
:104A7000B001B39FC001A39F700D811D1124911D32
:104A8000B29F700D811D1124911D0895F999FECFDB
:104A900092BD81BDF89A992780B50895262FF9997E
:104AA000FECF92BD81BDF89A019700B4021639F08D
:104AB0001FBA20BD0FB6F894FA9AF99A0FBE08955E
:044AC000F894FFCF98
:00000001FF
