:100000000C9408210C9418210C9418210C9418219C
:100010000C9418210C9418210C9418210C9418217C
:100020000C9418210C9418210C9418210C9418216C
:100030000C9418210C9418210C9418210C9418215C
:100040000C9418210C9418210C9475230C941821ED
:100050000C9418210C9418210C9418210C9418213C
:100060000C9418210C9418212E0000EA24FFAE51A4
:10007000699AA2213D84820A84E409AD11248B98F7
:10008000C0817F21A352BE199309CE2010464A4A4F
:10009000F82731EC58C7E83382E3CEBF85F4DF940C
:1000A000CE4B09C194568AC01372A7FC9F844D732E
:1000B000A3CA9A615897A327FC039876231DC761AA
:1000C0000304AE56BF38840040A70EFDFF52FE0366
:1000D0006F9530F197FBC08560D68025A963BE037C
:1000E000014E38E2F9A234FFBB3E0344780090CBC6
:1000F00088113A9465C07C6387F03CAFD625E48BC9
:10010000380AAC7221D4F80700000000000000009B
:1001100000000000000000003031960000000000E8
:100120000000000000F00000060000EA00000000EF
:1001300000000000000000000000000000000000BF
:1001400000000000000000001200A0E300F029E120
:1001500070D09FE51F00A0E300F029E168D09FE583
:1001600001008FE210FF2FE119481A49091A00F027
:1001700013F81949194A1A4C00F017F819491A4A84
:100180001A4C00F012F81A491A48086000200021A1
:10019000194B9E46194B184703228918914303D0E7
:1001A000002204C00439FCD17047A31A03201B1895
:1001B000834303D001C901C2043BFBD17047C04651
:1001C00038009FE510FF2FE1A07F0003007F0003B0
:1001D000200100033C2D0003E43C00023C2D000301
:1001E00000320003C43B00020000000320010003B2
:1001F000FC7F000358010002E0000002CD2B00024A
:10020000CD1500020E4B8200D358002230B50D4CA4
:10021000A1180D7BA84205D18968002902D0115987
:10022000C9115B1814323C2AF2D10020002B03DBE9
:1002300018007F2B00DD7F2030BC02BC0847C04681
:1002400074010003740200030E4A1300F0B5002489
:100250000126D56B4033E0321F78874207D11F79E2
:100260008F4204D1002D08D0042906D1DE7014334A
:100270009342F1D1F0BC01BC00471C701C725C7051
:10028000F5E7C04674020003F0B50600142700200D
:10029000184D40353C004443635D002B05D0B3420C
:1002A00012D12C19247994420ED114244443114BB9
:1002B0004033E6541B19597000211A719970D97096
:1002C0001972F0BC02BC084701300828E2D10020B6
:1002D0001423070004009C4665466543064B5D19E0
:1002E000ED78BD4201DD2F0020000134082CF3D150
:1002F000DBE7C04674020003B402000370B50600D9
:100300000D1E0ADB7F291BDC3F2907DD300001F0D1
:1003100073F9403D0400B01C05E00025B01E01F05B
:100320006BF90400300001F067F93F23001B4543DF
:10033000E817184040198011001970BC02BC08472A
:100340007F25E3E7F7B505000C00704E002836D195
:100350003700336E64370520002B00D00820FFF7EC
:1003600051FF01003878FFF7C9FF0190B36E9D423D
:1003700000D1A4E002239D4200D1A1E0002D4DD187
:10038000634A136B63491B041B0C0B8062490B8887
:10039000D06A1B0B1B0303431B041B0C0B8001982F
:1003A000536B184300040014002C00D05B4C044332
:1003B00024045B4B240C1C80F7BC01BC00470128C3
:1003C00007D10520FFF71EFF330064330100587882
:1003D000C9E7022807D10620FFF714FF3300643372
:1003E00001009878BFE7002301930328BED10720BE
:1003F000FFF708FF330067226433DB78D21AD30F8C
:100400009A180300403B5210DB109B18DA101000C2
:1004100068430722000113401843A6E7012D16D1B7
:1004200040493B4A0B88D06B1B0B1B0303431B0447
:100430001B0C0B800198936B184300040014002CD4
:1004400000D0364C04432404240C374BB3E7022D70
:100450001BD12F4A936C35491B041B0C0B8034496C
:100460000B88506C1B0B1B0303431B041B0C0B80E2
:100470000198D36C184300040014002C00D0274CC2
:1004800004432404240C2B4B95E7032D00D093E761
:1004900029491F4A0B88506D1B0B1B0303431B0488
:1004A0001B0C0B800198136D184300040014002CE2
:1004B00000D01A4C04432404240C204B7BE7002377
:1004C0001B01F2189446D26E002A15D06246116FB5
:1004D0008022520291420FD0370064377F5D002F97
:1004E0000AD0571A6246526F10007843844601982A
:1004F000484360440214019232006432525D002A83
:1005000000D13BE7F618019BB36737E7F40200031D
:100510007403000360000004620000040080FFFF19
:1005200064000004680000046C0000047000000413
:100530007200000474000004780000047C000004D1
:10054000F8B507000E00402904D101F041F8F8BCCD
:1005500002BC084700290BDB7F2926DC3F2908DD88
:10056000380001F035F8403E04000025B81C06E0D4
:100570000026B81E01F02CF800250400380001F018
:1005800027F82B000200F117121BAB41300002F0DC
:100590007BFB3F25CE172E403200002312184B4123
:1005A0009B0692091A431019D1E77F26D8E70E4B14
:1005B0009B6E98420CD0022398420AD000207047CC
:1005C0000120022BFBD0033B584258414000F6E784
:1005D0000023064A9B00D318DB6F012BF0D180006B
:1005E0001018C06EEBE7C046F4020003740300036A
:1005F0000023F7B5494E0093B36E05000F009842F3
:1006000006D0831E591E8B4102215B421943009183
:1006100094100F2C64DC009B013300D174E0002C9B
:1006200062D1330064335A5DBA4222D100245C5552
:10063000002D2FD122033A4CE36A1A431204394B9E
:10064000120C28001A800121FFF77CFE336E364D14
:10065000364E0820002B00D10520FFF7D3FD010006
:100660003800FFF74BFE636B1E4330430004000C61
:100670002880F7BC01BC00472800FFF798FF00283E
:1006800042D0009B1B01F3189A6F5A6700221A6729
:10069000013238E0012D08D1214B2203DC6B1443D9
:1006A0002404234B240C1C800BE0022D0ED1214B83
:1006B0001A5D1B4B5B6C520313431B041E4A1B0C3D
:1006C000138001212800FFF73DFED2E7032DD0D192
:1006D000134B22035C6D14432404240C174BE2E7F4
:1006E000009B0F24013312D0330064335B5D019310
:1006F000002BC1D12800FFF75AFF0228BCD0009B75
:10070000019A1B01F318DA66002C00D189E7330047
:1007100064335A5D9742ACD05F5589E7F402000319
:100720007403000362000004640000040080FFFF03
:1007300068000004302C00027200000478000004FD
:10074000F0B5082800D90020184A15000300142627
:1007500040350133072B00DD002398420BD03400D5
:100760005C43675D002FF4D02C19277A002FF0D05E
:100770002479A142EDD114255D434032AE5C0C4892
:100780008C00002E06D05219157A002D02D0127955
:10079000914207D000230019C360013B1800F0BC50
:1007A00002BC084701220019C260F7E77402000387
:1007B000F403000370B5114AC51D0B3055290BDD3C
:1007C0000121814013888B4313800123AB401188A2
:1007D0000B431B041B0C0CE00124230083401688F0
:1007E00033431B041B0C13802A29EEDCAC40138816
:1007F000A343138070BC01BC0047C04680000004C6
:100800000022024B58685A607047C0463C2D0003D6
:10081000014B8000C058704774010003F0B505001B
:1008200087B00E1E1BD1714B1A00643212788242BF
:1008300001D16F4AD16664335B789D4202D10022B8
:100840006B4B1A6700212800FFF7FEFC00222900ED
:100850001000FFF7CDFE00222900012049E0002210
:10086000FFF712FD0123634C5B42029300234034E7
:10087000270005900493059B049A934228D03B7867
:100880000193002B24D0BB78012B38D83A79012A68
:1008900035D8594A9268002A31D01422059B5A4310
:1008A000544B40339B1801221A72504B1A00643289
:1008B0001178019A914205D1186E002802D10200E8
:1008C000FFF796FE012300223B72494BDA661A6756
:1008D000049B013304931437082BCCD1444BDB6FBA
:1008E000012B48DD0127414A029797663200290013
:1008F0000298FFF77DFE07B0F0BC01BC0047052B56
:10090000E6D83B79002BE3D13B7A002BE0D1374B83
:100910001A006432127801998A4215D11A6E039234
:10092000002A11D1324B01320398DA66FFF73FFEFD
:10093000002804D0039A01991000FFF759FE002304
:100940002A4A93660293C3E764335B78019A934221
:10095000BED10122264B00201A67FFF728FE00288F
:1009600004D0002201990120FFF742FE01221F4B13
:100970009A661300E6E7029B0133B7D114211D4AA2
:1009800013000598484340331B181B7A002BB2D143
:10099000164B186E1949002804D0CB68002BAAD139
:1009A000320059E7C968002903D03200290000202D
:1009B0009FE7643318785F787F23E032944619000C
:1009C0002278824207D12279002A09D1A178B8423F
:1009D00006D1A37804E0BA4202D12279002AF8D0E5
:1009E00014346445ECD18B42DADADEE7F40200031A
:1009F00074030003740200033C2D0003F40300039E
:100A0000F0B5050085B00E1E13D12F4B64339B78D3
:100A1000834201D12D4B596701212800FFF714FCB7
:100A2000002229000220FFF7E3FD05B0F0BC01BC65
:100A30000047274A00231400244FE0327B670392CB
:100A40000193403423780293002B10D0A3789A1E90
:100A5000032A23D82379012B09D102207B67FFF7D2
:100A6000A6FD002803D001210298FFF7EDFB039BB0
:100A70001434A342E6D1012231002800FFF704FC20
:100A800004000220FFF793FD00280FD114236343D5
:100A90000F484030C01801230372C6E7012BE6D887
:100AA0002379012BE3D123720193E0E7320029007F
:100AB0000220FFF79DFD019B002BB6D0142044437C
:100AC000034840300019E6E7F40200037403000312
:100AD0007402000310B50A0001000320FFF788FD2F
:100AE00010BC01BC0047014B9866704774030003BB
:100AF00070B50500002905D10431FFF7A5FB70BCD6
:100B000001BC00470422FFF7BFFB142403001800B8
:100B100060430023074C2418A3641020FFF772FBE6
:100B200001002800FFF70CFD034B5B6EE0642365BA
:100B3000E5E7C04674020003740300030122FF21AD
:100B400008407F2802DD80385242F9E7044B3F28F5
:100B500004DD1B1A7F33187C504370471B18FAE7DB
:100B6000302C0002F0B50F0085B001281AD1002505
:100B70002A2903DD4035542900DD4035AE4B186E7F
:100B8000AE4CAF4E002806D1E36A33402B43E362FC
:100B90000100FFF7D7FBE36B33402B43E3630021F6
:100BA000012014E0022818D1A34B1B6E002B10D09B
:100BB00000222A2903DD4032542900DD40329F49BA
:100BC0009F4BC86A03401343CB6200210800FFF724
:100BD000B9FB05B0F0BC01BC0047052807D1964B16
:100BE000186E0028DBD10100FFF7ACFBD7E7062821
:100BF00002D100210438EAE70728FAD0132817D1D8
:100C00000C0010347F2C00DD00248B4B1B6E8B4AB4
:100C10002411002B05D1D16A8A4B0B4021020B43D2
:100C2000D362D36B8848240218400443D463B6E7E8
:100C300014280FD10C0010347F2C00DD00247F4BD2
:100C400081485A6D24111040240204435C65002140
:100C50000320BCE7122830D1774B1B6E774D7B4EBB
:100C6000002B10D17F291ED1794B6A6B13407F2254
:100C700000216B63EB6AD21B334052101343EB62CB
:100C80000800FFF75FFB7F2F12D1714BAA6B134057
:100C90007F20AB63EB6BC41B1E4064103443EC63DA
:100CA00000217E3893E780236A6BDB011343DEE784
:100CB0008023AA6BDB011343EAE7112817D15F4BAE
:100CC0007F290FD1624AD96C0A407F20DA64FF2263
:100CD000596CC41B12020A40640014435C64002176
:100CE0007D3874E78022D96CD2010A43EDE71528DC
:100CF00016D1524B7F290ED1554A196D0A407F20DB
:100D0000596D1A65514AC41B0A40641014435C654E
:100D100000217C385BE78022196DD2010A43EEE79F
:100D20000B2819D1444B1B6E002B00D151E7434BCC
:100D30007F290CD1464A596B0A407F20D96A5A63F1
:100D4000424AC41B0A4064101443DC6241E780221B
:100D5000596BD2010A43F0E71A2808D13D4B00290C
:100D600000D100E16630441AE4019C6031E70928B3
:100D700011D1314B196E002903D039006F2F00DDDE
:100D80006F212E48344B026B13407F22521A1211EE
:100D9000134303631DE70A2824D1274B1B6E274A00
:100DA000002B0CD0082307290ADD0B003721772FF1
:100DB00010DC3900403900290CDC402F00D1002321
:100DC0000F20116B08400821DB1001431B010B436E
:100DD0001363FEE640235B1A0F21106BDB101B012F
:100DE0000140F4E7082805D1134B1B6E002B00D1FE
:100DF000EFE6EAE60C2812D10F4B1B6E002B00D158
:100E0000E7E60C0010347F2C00DD00240B4B0E486D
:100E1000DA6A2411104024020443DC62D5E6032878
:100E20001ED1064A0D4B116DBC110B40E4001C4352
:100E300014650021CBE6C046F402000374030003EE
:100E40003FFF0000FFF80000FFF00000C0FF0000BF
:100E5000FFBF00003C2D0003F8FF0000F7FF00007B
:100E6000042827D10F23C81718404418994A241181
:100E7000A30024011419206D97490860591C8900AA
:100E80005118086D95490860991C033389009B002F
:100E90005118D3181A6D086D914B924908601A6069
:100EA0004023914A916C4B4093641B048F4A1B0C66
:100EB00013808EE603000D3B022B44D80D20FFF774
:100EC000A1F905000F20FFF79DF907000E20FFF79D
:100ED00099F9874B1900844A0090506E143188426A
:100EE00000D1844B80241433641B5366E41B01D56A
:100EF0002D190024EB01EB1A02937F231A006A4399
:100F0000002501920393FE012800FFF717FE03005E
:100F100018006043029B3018C118009BAB4201DDF2
:100F2000019BC118704B03985A6ECB1703405B1896
:100F3000DB11535501F094FE80230135F61B5B0055
:100F40009D42E1D145E628280AD16B4D287B6B4BA9
:100F50008200FC10D1580134FFF704FE2C7338E6F0
:100F6000292802D1644B9F6033E62A2805D15630E8
:100F7000441A614BA4001C822BE62B280BD15E4D3A
:100F80000135E87F5D4B8200FC10D1580134FFF73A
:100F9000E9FDEC771DE62C2802D1574BD96118E604
:100FA0002D2805D15330441A534BA4009C8410E6DD
:100FB0002E280BD1504D34352878504B8200FC1030
:100FC000D1580134FFF7CEFD2C7002E62F2802D154
:100FD000494B1963FDE5302805D15030441A464B82
:100FE000A4001C87F5E5162805D102380C004443FF
:100FF000414BDC63EDE50300173B012B11D81800D2
:10100000431E9841384BC0001B1800221F2906DDE3
:1010100001223F2903DD02225F2900DD0322DA6776
:10102000D7E51E2809D1364B002904D06230441A76
:10103000A4005C61CDE55961CBE531280BD1314B82
:101040001B6E002B02D13038FFF7B4FB39000220B1
:10105000FFF7B0FBBDE5322801D12F38F8E7332880
:1010600006D1284B1B6E002B00D1B2E53238EFE7DA
:10107000342817D1244B552908DD1A8823490A4002
:101080001A808022198852010A4309E080221988B7
:1010900092010A431A802A2FF3DC1A881C490A405D
:1010A0001A8096E5352801D13138D1E736280AD1A2
:1010B000184B18884C118004A403800C04432404AA
:1010C000240C1C8085E5372800D082E5481100F00B
:1010D0006DFB7EE5302C00029000000494000004BB
:1010E0009C000004980000047403000370000004D6
:1010F000F4030003F404000374020003740100030A
:10110000F4050003F402000382000004FFDFFFFF88
:10111000FFEFFFFF88000004304B1B6E10B5002B63
:1011200033D00920FFF76EF801000920FFF71AFD00
:101130000820FFF767F801000820FFF713FD0C20D7
:10114000FFF760F801000C20FFF70CFD0B20FFF704
:1011500059F801000B20FFF705FD0220FFF752F8B8
:1011600001000220FFF7FEFC0A20FFF74BF8010008
:101170000A20FFF7F7FC3320FFF744F80100332083
:10118000FFF7F0FC10BC01BC00470520FFF73AF860
:1011900001000520FFF7E6FC1320FFF733F80100FC
:1011A0001320FFF7DFFC1220FFF72CF801001220BC
:1011B000FFF7D8FC0120FFF725F801000120FFF719
:1011C000D1FC3120FFF71EF801003120FFF7CAFCE7
:1011D000034A044B116B0B401363D3E7F402000383
:1011E00074030003F8FF000070B596220D000400A0
:1011F000054B1A66FFF790FF2A0021000020FFF739
:10120000F7F970BC01BC0047F40200030B4B70B54A
:101210008200D15005000C00FEF7F4FF0100280009
:10122000FFF7A0FC21062800090E01F0A2FB012215
:10123000034B5A6070BC01BC0047C04674010003F8
:101240003C2D0003F7B580228921334B1A80334BA4
:1012500049421980F021324D0023C900E962E96357
:101260000F21304E2B636B63AB63EB642B652E4F0A
:101270000133AA6469646A65336651377B1E1C7842
:10128000002C43D13466FFF747FF33008C33274FE0
:101290001C60274BF466F4679C361C3334603E00B8
:1012A00001932B6601231C36EB65BE6101F0D8FC6F
:1012B000204A214B1A808222204B1A80204A214B3F
:1012C0001A808022204B1A80204B013AFF3A1A8064
:1012D0001F4B4532FF321A801E4B1F4A1E601F4BA8
:1012E0001A601F4A1F4B1A80019B1F4ABB611300E3
:1012F0002E664033E0321C705C709C701C721C7156
:1013000014339342F7D1F7BC01BC00473978200071
:10131000FFF77CFF0237B1E784000004800000047F
:1013200074030003F4020003B02C0002F405000370
:10133000740600030EF0FFFF8200000402010004A7
:1013400006FDFFFF0401000406010004080100047B
:101350000A010004C8000004A4000004CC0000043A
:1013600040B6FFFFD200000474020003F7B501F09D
:1013700077FC8C498C4C0B88A28B9B1A1B041B0C92
:101380000191822B00D97BE0019BE28B1B8887496E
:101390009B1A1B041B0C864E8B4200D9A9E0854B7F
:1013A0005969019B226A1B889B1A1B041B0C8B42E8
:1013B00003DB5218226201F065F93500AA68002AA1
:1013C00000D1B7E0019BE8891B88298A1B1A1B04FE
:1013D0001B0C8B4222D32B7901331B0640181B0EAA
:1013E000E8812B71180600D59FE0402B00D19FE0CB
:1013F000286882182F7B2A603A000D3A022A06D804
:101400001F22134203D0C8235B00994206D938003B
:10141000FEF7F8FE01003800FFF7A4FB664B143519
:101420009D42CBD1654B9A68002A00D084E0644B82
:10143000DA601A6101F014FCF26B002A1DD0019BE6
:10144000216B1B885B1A1B041B0C9A4215DC52187B
:1014500022633200E03640321378002B0AD0D37872
:10146000002B07D05378013B1B061B0E537001D194
:101470001370137114329642EED1F7BC01BC0047D1
:10148000504F00233D008332A283009370352B1F01
:101490001B68002B06D1009B013300931035042BF1
:1014A000F5D171E72E68484B9E42F4DC1920FEF717
:1014B000A9FE7F23181A8023C001013086195B0220
:1014C0009E420BDC2E600126BB6E701E834209D04B
:1014D000022862D0042EDED00136F5E780235B02BD
:1014E0002B60F0E7009B002BF4D10021FEF72AFFD0
:1014F000F0E7364B3100D2183300E2834233E23159
:101500001A787E2A01D801321A7014339942F7D121
:101510002C4A136E002B00DC41E7013B1366002BC5
:1015200000D03CE7FFF7F8FD39E72868821A61E749
:1015300000225FE72A6071E7019BA18C1B885B1A80
:101540001B041B0C9A4200DD74E78A18A06A002174
:10155000A284FFF7F5F8051E0BDB142331001800F9
:10156000684340310A185278415C0120FFF740F887
:10157000A5620121E06AFFF7E3F8051E00DA59E7EA
:10158000142331001800684340310A185278415C36
:101590000220FFF72DF8E5624CE7009B022B9BD160
:1015A000A3E7C04600010004F40600031D05000087
:1015B00074020003F4050003B00200033C2D000395
:1015C000F4030003F4020003FFFF00001E05000007
:1015D000172806DD602806DC1838044B8000C05848
:1015E00070470348FCE70348FAE7C046642D000251
:1015F0007B6B6100ADDE5A1803002820172B06DD37
:10160000602B05DC0348183B5B00C318188C70473F
:101610000148FCE7642E0002EE070000A022034B05
:101620001A80034B9F3A1A807047C046000200049C
:1016300008020004002370B580260C4D0C4C2B8052
:101640002388334207D000F045F8268001232B8001
:1016500070BC01BC004720262388334202D001F031
:1016600007FBF2E723882380F0E7C0460802000466
:101670000202000410490A68486830B50F4B9042D6
:1016800006D1002201201A60404230BC02BC08474B
:101690001D001078843501320A601C1DAA4200D159
:1016A0000C601A68013A1A60054A546819688C423D
:1016B000EBDA1B685360E8E7482D00032C070003B2
:1016C000AC0700030022024B58685A607047C046BE
:1016D000AC070003174B18495A68087830B51070EA
:1016E00016480500013284355A60041DAA4200D113
:1016F0005C600268013202609A68D868904209D141
:10170000FE230B8080230E4A11880B43138030BCCC
:1017100001BC0047107808800A490800013288316E
:101720009A6008308A4200D19860074A9368013B6A
:101730009360E7E7482D00032A0100042C0700030B
:1017400028010004AC0700032C08000310B5FFF7C4
:1017500091FF431CFBD00006000E10BC02BC0847E2
:1017600010B50B498B687E2BFCDC0A4C0A4AE368F7
:1017700018701000013388320830934206D0E360BD
:101780008B6801338B6010BC01BC0047E060F7E759
:101790002C080003482D0003AC0700038122024BF4
:1017A000D2011A607047C04628010004014BD8607E
:1017B0007047C0462C080003F8B5FFF75BFF050033
:1017C00000206B1C07D0AE4CFF2D07D1237C834239
:1017D0000BD101302074F8BC02BC0847FE2D04D1A7
:1017E000237C002B01D10120F5E700272E06360EC1
:1017F0003000277400F0AAFA637CBB4201D0F72DB9
:10180000F1D1F82367742B40F82BECD06369E21810
:101810001676002B21D12B0606D4E37F002B40D077
:101820002376012366766361217EEF293CD86369C4
:1018300001333BD0E1770F200B0014268143034096
:10184000E0680500754321768E496D580133621CAE
:10185000D377AB4232D10123D37763690133072BAE
:1018600052DC6361237E10221900914380296AD1E2
:101870006269032A00D0B8E00022802B00D1A27652
:10188000651C6261617EA27EE87F00F0A9FF0028EE
:10189000A9D1ED7F012D39D1A17E607EFEF7BEFF7B
:1018A000A1E701235B42BEE7F729C4D8636901338E
:1018B000C1D00023E377013B6361BCE7E06805002A
:1018C00075434D196D68AB4201D10223C4E7E0684E
:1018D000050075434D19AD68AB4201D10323BBE749
:1018E000E068050075434D19ED68AB4201D1042352
:1018F000B2E7E56830006843091809698B4201D1F5
:101900000A23A9E7FF23A7E70723AAE7022D04D1AB
:10191000A17E607EFFF774F865E7032D04D1A17EF8
:10192000607EFFF761FC5EE7042D04D1A17E607E3E
:10193000FFF7DEF857E70A2D00D054E7A17E607E5E
:10194000FFF7C8F84FE7A02B06D16369032B00D03F
:1019500049E70023636146E7B02B40D16369032B5D
:1019600000D040E7607E7B2801D0782828D1002570
:10197000631CDB7F012B07D100212800FEF74EFFFF
:1019800001357F2DF4D1E4E7022B04D1002128009A
:10199000FFF736F8F4E7032B04D100212800FFF706
:1019A00023FCEDE7042B04D100212800FFF7A0F869
:1019B000E6E70A2BE4D100212800FFF78BF8DFE7E8
:1019C000631CD97FA67E00F075FC051EC1DD3100C9
:1019D000FFF71CFC3100280000F03CFFB9E7C029EC
:1019E00003D16369022BB4D0FDE6E02B3DD16369DE
:1019F000032B00D0F7E6A57E637EED01ED18802372
:101A0000DB019D4200DD1D00631CDB7FED11012B1E
:101A100006D129000520FFF7F9FB29000520DBE7A7
:101A2000022B06D129000620FFF7F0FB2900062033
:101A3000D2E7032B06D129000820FFF7E7FB290096
:101A40000820C9E7042B06D129001020FFF7DEFB90
:101A500029001020C0E70A2B00D07AE729000720D0
:101A6000FFF7D4FB29000720B6E7F02B00D0BAE639
:101A70006069012800D0B6E6002360746361AAE6BD
:101A80002C080003142F0002D3079B1A4901C91820
:101A9000C02310B54000DB04C0181378002B02D11E
:101AA00010BC01BC004754186400203B2352013293
:101AB000F3E7F8B5144E07000D00B24202DCD6433E
:101AC000F617164030000A24002818D1C0236C01F4
:101AD000E4190A276400DB04E4183000390001F03F
:101AE000CFF830000D00390001F0D2F81035258014
:101AF0000600023C0028F0D1F8BC01BC00472100E0
:101B0000013701F0C5F8DFE70F2700004901081889
:101B1000C02130B50F254300C9045B180A4C1111D0
:101B20002940615C2A4020391980A25C07494300A2
:101B30005B18203A1A80064B4000C018002303802F
:101B400030BC01BC0047C0460C3700020200000652
:101B50000400000670B5140000256268002A06D053
:101B600026789E4206DD9D4204DCFFF78DFF70BCA7
:101B700001BC004708343500EFE7F0B5664B91B083
:101B800002A81900020070C970C270C970C2096849
:101B9000116009A90A001C3332CB32C232CB32C2E7
:101BA00000211B6813605D4B5D4A1980023393422C
:101BB000FBD1002704243D005A4B1B689B00C258F0
:101BC00003210020FFF760FF0197574B1B68DB19CB
:101BD0009A68544E002A35D173689D4203DC534BFA
:101BE000726064325A807368002B06DA6B1E736071
:101BF0004A4BAD01ED1864232B8001344C4A21007F
:101C00000020FFF741FF019B002B00D17EE01A006E
:101C100021000D20FFF74DFF2100464A1220FFF75B
:101C200033FFB068FEF7F4FD210002001720FFF734
:101C300040FF414A13210020FFF726FF11B0F0BCFE
:101C400001BC0047326809A89200125859883B48E5
:101C50000A4205D0814205D082420AD11037B4E74A
:101C6000824202D18A42F9D103E0002AF6D100294A
:101C7000F4D17168A2018D421FD11978B160197930
:101C80000191C021C904521864211180DE681878BE
:101C9000002E17D0FEF7BCFD32000300210001200A
:101CA000FFF758FF204B1B68DB1921009A680C20B6
:101CB000FFF7EAFE01340135D0E7C021C90452180C
:101CC0000021E2E7FEF7A4FDC0216126C30F18182A
:101CD00063015A1CC904520056526D26184940101F
:101CE0005B005B180100B44640396646082804D002
:101CF0006226072801D80600653608381E800233A0
:101D00008842F2D163210F4BD152CBE70E4A21001A
:101D10000D20FFF7B9FE7FE7D4360002C0000006B1
:101D20000005000650080003582D0003FE000006C1
:101D30001D3700022F37000235370002FFFF000079
:101D400004000006120000062B3700020D4B0E495E
:101D5000DA6888540132502A12D0DA601A69D968D8
:101D60008A4201D101321A611A69502A01D1002236
:101D70001A610121054A11605A6952185A61704767
:101D80000022EAE7500800032401000320010003B9
:101D90000021F8B51E4A1F4B198002339342FBD134
:101DA0001D4C2369E268D21A072A02DC07221A4076
:101DB0009B184F2B00DD002304260025E268934288
:101DC00014D16369202B04DDFFF77CFC0023A061A4
:101DD0006361124A0F210020FFF756FEA2690F210E
:101DE0001020FFF793FEF8BC01BC00470C4A5F1CB3
:101DF000D25C31002800FFF789FE4F2F00DD00275D
:101E00000335182D01DD002501363B00D6E7C0461D
:101E100000050006C000000650080003503700020D
:101E2000240100030021F8B5444A454B19800233D0
:101E30009342FBD1434A03210A20FFF725FE424A81
:101E400004210020FFF720FE00F074FA04210212A2
:101E50000720FFF72EFE00F06DFA0206120E042195
:101E60001320FFF726FE05240427651F280000F035
:101E700079FA661C01281BD100F069FA31000212C0
:101E80000020FFF716FE3100304A0320FFF7FCFD6B
:101E900000F05DFA02063100120E0420FFF709FE81
:101EA0002B4A13210020FFF7EFFDF8BC01BC0047CF
:101EB000284BDA69A301AA4235D1C022D2049B186B
:101EC00064221A80072D33D0221F21000120FFF742
:101ED000F0FD280000F046FA830704D51E4A2100D1
:101EE0000920FFF7D1FD280000F03CFA384204D069
:101EF0001A4A21003800FFF7C7FD280000F032FA27
:101F0000030704D5164A21003800FFF7BDFD28005D
:101F100000F028FAC30604D5124A21000F20FFF76B
:101F2000B3FD3400A1E7C022D2049B180022C8E709
:101F30000D4A0C210220FFF7A7FDCAE700050006A5
:101F4000C00000065E370002683700029C370002BE
:101F50009E37000250080003873700028D370002C9
:101F6000913700029637000285370002002170B5D4
:101F7000174B184A198002339342FBD1164A0321AA
:101F80000520FFF781FD0024651D144A290001206A
:101F90000134FFF779FD220029000620FFF789FDB3
:101FA000082CF1D10E4B196A07230B40053364222C
:101FB0009B0121420AD10B495B181A8013210A4A5E
:101FC0000020FFF761FD70BC01BC00470749F3E743
:101FD000C000000600050006BC370002CE37000234
:101FE0005008000314000006E3370002200000063A
:101FF000F7B501218A4B1B888A4C0B4058D0636A85
:102000008B4256D0884B1B88142201930023250055
:102010001800944661622835019F07410F4005D0A2
:10202000002226005A515036F25007E026005A5935
:1020300001325A515036012A2FDCF7500130043357
:102040000A28E9D1E36D022B03D1A36F5A42534111
:10205000A367636F022B06D1236F012B03D1E36FBC
:102060005A425341E367A36D022B04D16F4A1368B0
:1020700059424B411360E36F002B1DD0236D022B9F
:1020800002D0636D022B02D100232361E3600022A2
:10209000674B1A60FFF77CFE0BE0022AC4D0162AB9
:1020A00004DD0222F25062465A51C7E7F150C5E7FB
:1020B0006362F7BC01BC0047A66F002E2ED0A36E52
:1020C000022B02D1236A013B2362E36E022B02D171
:1020D000236A01332362636E022B02D1236A083321
:1020E0002362236E022B02D1236A083B2362236DF5
:1020F000022B08D1206A053302070BD4184000F0E8
:102100007AFC0023A3670F23226A13402362FFF7A0
:102110002DFFCEE7184000F05CFCF2E7434B1D6852
:10212000002D39D000F070F9A36E022B03D1E369C2
:10213000013B25D4E361E36E022B09D1E369581C0E
:10214000E06100F00FF9012802D1E369013BE3618E
:10215000636E022B02D0236E022B02D1E06900F0E5
:1021600097F9236D022B02D0636D022B05D100F08D
:10217000DBF8431C06D000F095F9FFF753FE98E713
:10218000E661D8E7236D022B02D100F073F9F4E782
:10219000E06900F041F9F0E7FEF732FB236D022B16
:1021A00006D123680133062B36DC236000236360ED
:1021B000636D022B05D12368013B2FD423600023DC
:1021C0006360A36E022B02D16368013B6360E36E20
:1021D000022B02D1636801336360236E002B02D1AE
:1021E000636E002B15D0A068FEF712FB236E5A1EFB
:1021F0009341C018636E5A1E93417F21C01A7F28F5
:1022000002DCC143C9170140A068FEF7FFFFFEF7DB
:10221000F7FAFFF7B2FC4CE72560C7E70623CDE7E6
:10222000040000045008000330010004D00800033B
:1022300020010003802280235200DB0410B51A60C5
:10224000134BF83A1A800023124A1380124A13489B
:102250001380134900F04EFBA0231248124ADB04FE
:10226000FB2109065918415A198002339342F7D1CC
:1022700000210E4A0800FFF707FC0D4A012100204B
:10228000FFF702FCFFF779FC10BC01BC0047C04619
:102290000800000410000004120000040080000682
:1022A000642F0002CA36000220000005FA3700023F
:1022B0001938000201228A40084B1B6899680029DE
:1022C00002D10120404206E059880A4204D019791F
:1022D000814201D1187870471033EFE7582D000381
:1022E00000230B4A10B513600A4A10007F241360C4
:1022F000536093600C302C321958002906D0D4500A
:102300000433202BF8D110BC01BC0047D150F7E7B3
:10231000F4310003D4080003820202484C308018D4
:102320007047C046D4080003014B18687047C04688
:10233000F431000310B52020FEF76AFA04001F20D4
:10234000FEF766FA2402201810BC02BC0847044BB2
:102350005A689B68501C01330002C0187047C04681
:10236000D408000370B50123072819D8164A1100B4
:1023700083024C31CB181B79033B5D425D416B00FE
:10238000124D2E688400013604D06D68A8420BD12E
:1023900004210B431219D268002A01D010221343E2
:1023A000180070BC02BC084702252B420AD115193F
:1023B000ED6AC0014019C000081801790329E9D06D
:1023C0000821E6E72B00E5E7D4080003F431000319
:1023D00070B58025002203240949ED004C310948DD
:1023E000131D1018CB1808188026F6001C709B19B6
:1023F0008342F9D10832AA42F1D170BC01BC004736
:10240000D4080003042000000022024B98689A6060
:102410007047C046F43100030022032110B5094B78
:10242000094CDA646060820208484C3050338018EE
:1024300019710171FFF754FF0123A36010BC01BCA7
:102440000047C046D4280003F4310003D408000339
:10245000820206484C3080180379032B04D90323E9
:1024600001220371024B9A607047C046D4080003F2
:10247000F4310003012310B5044C5B426360FFF7A5
:102480002FFF0123A36010BC01BC0047F4310003FF
:1024900083000348C018C3685A425341C360704761
:1024A000D4080003F0B5002485B020000021FEF719
:1024B000B5F920000021FEF7A3FA20000021FEF765
:1024C00093FE20000021FEF713FB200000210134C1
:1024D000FEF700FB7F2CE8D10024654B21201C6512
:1024E000FEF796F92120FEF793F91F232038834247
:1024F00064412120FEF78CF9403864011F2800D880
:1025000040242120FEF784F960381F2800D8802459
:10251000584B5B68013300D19EE0002563100293A5
:10252000554BDE6CB54200DB88E0544A0192012233
:10253000190052420092503100220BE0D700C81916
:102540000079032805D07F580198B84201D9019736
:1025500000920132B242F1D11900009A5031D200FA
:10256000891808799B18012866D1C979002963D098
:10257000186D210000F084FB029B994200DD091BCD
:102580002220CE01FEF744F90100300000F080FB6C
:10259000009B394FD9007B181E6DFB6C01935023B3
:1025A0009C462A00EB00BC4404330397361A63446C
:1025B0006144019FBA4215DA1F78012F39D1DF78C3
:1025C000002F36D14F79BC465F78BC4531D18F7929
:1025D000BC469F78BC452CD1039BD700DF193B6DCF
:1025E000181A38651F20FEF713F907002020FEF7A0
:1025F0000FF94743FF01BE42BF411E4B5B68DB0141
:102600001F4A5B19DB00D1184C32D218009BD8004E
:10261000194B50331B183E40CE641979117159790A
:10262000517199799171D979D171032201351A715A
:1026300076E701320833BCE71E6DD3E70D4B5868CF
:10264000C3015D1903230E49ED004C314D192B7167
:102650008302C91800F0A8F90122064B52425A60C1
:102660001A6002329A6005B0F0BC01BC0047C04657
:10267000D42C0003F4310003D4280003FFFF000032
:10268000D4080003F7B5534E33680025013347D112
:10269000F7BC01BC004701295FD1B879FF79072D4C
:1026A00007D14D4B196D002901D1996D59655B6DAD
:1026B000C0187F2800D900202300E9018A184C3374
:1026C000D2009A185379012B2DD13900FEF7A6F8C4
:1026D000414B1A6D072D3ED1002F3CD1013A1A65AE
:1026E000009B2C341B59009A0193013313513B4C2E
:1026F00023002700009A2C33D258EB019B184C374B
:10270000DB00FF183979032907D0E318DB6C306848
:10271000834202DC7368AB42BDD10135082D23D062
:10272000AB000093E3E7022B03D13900FEF768F911
:10273000CEE7032B03D13900FEF756FDC8E7042B83
:1027400003D13900FEF7D4F9C2E70A2BC0D1390012
:10275000FEF7C0F9BCE70132C1E70229C0D1B9795F
:102760007879FEF753FDBBE73368013333602368A4
:10277000013323607F2B18DD01230025B360A3689C
:102780001F200133A3602560FEF742F8A36898423A
:102790000BDC6368202001336360A560FEF738F826
:1027A0006368984201DCFFF79BFD7368013300D139
:1027B0006EE72368002B00D06AE7A3681020002B87
:1027C00004D163682020002B00D00820FEF78BF98D
:1027D0005EE7C046F4310003D42C0003D4080003A4
:1027E000F7B5060023200C000192FEF711F8A04275
:1027F0000ADD2420FEF70CF8134B20184C3898659E
:102800000120FEBC02BC0847104B5A680020013270
:10281000F7D01B688342F4DB0D49CA6C7E2AF0DCDA
:10282000571CD2008D18CF6450312B658B180122B4
:102830001A716A461279DA7103225E719C71FB008B
:10284000CB181A71DDE7C046D42C0003F431000325
:10285000D42800030E4B5A6870B5013215D01D689C
:10286000002D12DB0B4AD36C7E2B0EDC5C1CDB00D4
:10287000D61835650225D4645032D3181D715871AD
:1028800099710323E4001219137170BC01BC004755
:10289000F4310003D4280003064A1368591008785D
:1028A000D90703D400090133136070470F21084092
:1028B000F9E7C046302D000330B5012303250C4C49
:1028C00061684A109A430D4006D100010131108021
:1028D000616030BC01BC00471388012D01D1184351
:1028E000F4E7022D01D10003F9E70002F7E7C04643
:1028F000302D0003114B4000490070B5586019603D
:10290000FFF7CAFF041E16D008280ADCFFF7C4FF31
:1029100000250600A542F3DA3000FFF7CDFF0135B0
:10292000F8E70125073CFFF7B7FF0135FFF7C4FFC4
:10293000A542F8D1E4E770BC01BC0047302D00038C
:1029400010B504000220FEF70BFF2006000EFEF774
:1029500007FF20120006000EFEF702FFFEF7F6FE4C
:102960000228FBD1FEF7F2FEFEF7F0FE10BC02BC1F
:1029700008470C4B1B6870B504000D00002B0ED1EE
:102980000120FEF7EDFE2006000EFEF7E9FE201204
:102990000006000EFEF7E4FE2800FEF7E1FE70BC24
:1029A00001BC0047382D0003030010201843000627
:1029B00070B5000E0C00FEF7D3FE8023DB00E51897
:1029C00020780134FEF7CCFEAC42F9D170BC01BCDA
:1029D000004770B5002485012000FFF7B1FF01001A
:1029E0002800413000190134FFF7C3FF402CF3D118
:1029F00070BC01BC004770B500248501280041303F
:102A00000019FFF79DFF010020000134FEF7FEFBD7
:102A1000402CF3D170BC01BC0047F8B5284B1A8894
:102A20000C231A4239D0FEF791FEFEF78FFEFEF717
:102A30008DFEFEF78BFE0020FFF782FF0124A52804
:102A40002ED1204D2C602000FFF77AFF01002000DE
:102A50000134FEF7DBFB402CF5D1002420262C604E
:102A600020003700FFF758FC274305003806000E0A
:102A7000FEF776FEFEF76AFEB842FBD18023DB004C
:102A8000EF18FEF763FE28700135BD42F9D1200032
:102A90000134FFF7DDFC082CE2D1F8BC01BC004793
:102AA000A5210020FFF765FF2000FDF7B1FE01061C
:102AB000090E20000134FFF75CFF402CF4D1ECE755
:102AC00030010004382D0003000051E34300000AE8
:102AD00001C020E000106142012051E22700000AFD
:102AE0000030B0E100306042010053E12600009A5E
:102AF000020011E12800000A0E0211E38111A00179
:102B00000820A0030120A013010251E3030051316A
:102B10000112A0310222A031FAFFFF3A020151E373
:102B2000030051318110A0318220A031FAFFFF3A19
:102B30000000A0E3010053E10130432002008021A6
:102B4000A10053E1A1304320A2008021210153E1E3
:102B50002131432022018021A10153E1A1314320F1
:102B6000A2018021000053E32222B0112112A01102
:102B7000EFFFFF1A00005CE3000060421EFF2FE140
:102B800000003CE1000060421EFF2FE10000A03386
:102B9000CC0FA001010080031EFF2FE1010851E3CB
:102BA0002118A0211020A0230020A033010C51E304
:102BB0002114A02108208222100051E32112A0211B
:102BC00004208222040051E303208282A12082900B
:102BD00000005CE33302A0E1000060421EFF2FE131
:102BE000000050E30201E0C30201A0B3070000EAC5
:102BF000000051E3F9FFFF0A03402DE9B3FFFFEBAB
:102C00000640BDE8920003E0031041E01EFF2FE103
:102C10001EFF2FE1920101E030002DE9931021E029
:102C2000904285E00400A0E1051081E03000BDE89D
:102C30001EFF2FE110B5FEF7F1FCFEF703FBFFF7D7
:102C4000C7FBFEF7ABFDFFF7E8FEFFF7F3FAFEF771
:102C5000B3FD0028FBD1FEF789FBFFF7C9F9F6E7C2
:102C60007847C04600C09FE51CFF2FE1010000032C
:102C70007847C04600C09FE51CFF2FE1C500000358
:102C80007847C046D9FFFFEA7847C046E0FFFFEA31
:102C90007847C0468BFFFFEA0000000303030302EE
:102CA0000202040404010101000306090C0F1215BD
:102CB000181C1F2225282B2E303336393C3F414427
:102CC00047494C4E515355585A5C5E606264666881
:102CD0006A6C6D6F70727375767778797A7B7C7CAD
:102CE0007D7E7E7F7F7F7F7FFFFF0000FFFF0000F4
:102CF000FFFF0000FFFF0000048CC840048CC840A8
:102D0000048CC840048CC84002468ACE02468ACE53
:102D100002468ACE02468ACE000088880000888853
:102D20008888FFFF8888FFFF888F0000888F000059
:102D3000888F0000888F0000A886866486646442BD
:102D40008664644264424220F8F8F8F8F8F8F8F82B
:102D50008080808080808080893274580823462358
:102D60001726346952764010054006400840074057
:102D70001040017F1A64033C0400117F127F133F4F
:102D80001420157F027F0C3F0B7F09000A2C0D7F5A
:102D90000F000E7F160A1940173218282820290024
:102DA0002A6E2B2B2C002D4E2E002F00301C1E4087
:102DB0001F0420042140227F23002414314032408C
:102DC00033403440354036000000FFFF4AF9C3006D
:102DD00083A0CF001FF9DB00AD0DE90058E9F60034
:102DE000F79705011726150100A12501C81637011F
:102DF0005A964901832F5D0101F3710194F2870115
:102E000005419F013FF2B7015A1BD201B0D2ED013B
:102E1000EF2F0B022D4C2A0200424B02902D6E0226
:102E2000B32C9302055FBA0203E6E30228E50F0321
:102E30000A823E037DE46F03B336A4035FA5DB0380
:102E4000DD5F16045B98540400849604205BDC0468
:102E5000665926050ABE740506CCC7054FCA1F066B
:102E600014047D06FBC8DF06666D4807BE4AB70737
:102E7000BABF2C08B530A90800082D0941B6B80919
:102E8000CDB24C0A147CE90A0C988F0B9E943F0C2F
:102E90002808FA0CF691BF0DCDDA900E7C956E0FD6
:102EA000747F59106A61521101105A12816C7113AA
:102EB0009965991428F8D21517301F173C297F18E7
:102EC0005010F419EB237F1B9AB5211DF82ADD1E43
:102ED000E9FEB220D4C2A4220220B42402D9E22600
:102EE00033CB322951F0A52B2E603E2E2C009C00B6
:102EF00006016B01C90123027702C60212035603C1
:102F00009B03DA0316044E048304B504E50411059B
:102F10003B0563058905AC05CE05ED050A062706C8
:102F200042065B06720689069E06B206C406D606EF
:102F3000E706F7060607140721072D073907440798
:102F40004F07590762076B0773077B0783078A07D9
:102F5000900797079D07A207A707AC07B107B60719
:102F6000BA07BE07C107C407C807CB07CE07D107FA
:102F7000D407D607D907DB07DF07000001000000F0
:102F80000200000003000000040000000A0000002E
:102F90000100000002000000030000000400000027
:102FA000050000000500000006000000070000000A
:102FB00008000000090000000C0000000D000000E7
:102FC0000E0000000F0000001000000084848484C4
:102FD0008484848484848454A0464A0464A048463B
:102FE0004A04848434C040444C040484848484842B
:102FF00044C040444C04044440B404D40404444059
:10300000B404D4040444C04048474A0434B040A047
:10301000444C040434B040A0464C0404C4040A04E4
:1030200064A04848484342034A04A402084A0434BE
:10303000C0404B404242024A04848444A0434C04B2
:103040000474A0434C040444C040474C04048484EA
:10305000B404B40464A0434A04848484848484B49F
:103060000434A0464A0464A0484B40484848434AB8
:103070000484B40464A0464A0434A0484848474243
:10308000054A04B404344044A04B40444208484834
:10309000484A0464A043440B40444A0464A048489E
:1030A000484848484542074A0434A04848484848E8
:1030B00046440848484848484848444A04B4043408
:1030C000A04B40484848484A0434A0474A0434A02A
:1030D000474A04848484A0434C040444C040444CC4
:1030E000040444C040474A04848464A0434A04B4AE
:1030F0000464A0464A0464A0434B040A0484843454
:10310000A04B404442074A0474A0434A04644084EC
:103110008444A04B404442084A0454A04542054A16
:1031200004B404848464A0434A04B40444C0404307
:1031300044074A0464A048484344054A045420B460
:103140000454A04542054A04B404848434A04B408E
:10315000444A0464C04043430642054A04B404841C
:1031600084344064A0474A0464A0434A0464A048ED
:1031700048464A04B404442054A04B40444206420A
:10318000054A04B404848434A04B404442064304FA
:103190004C040464A0444A04B40484848434A04BE2
:1031A00040434A04B4048434A04B40434A04B4046A
:1031B0008484845420642084642074A04848484552
:1031C0004A0474A0434A0484B40454A048484848BC
:1031D000444408444408484848444A0484B40454D5
:1031E000A0474A0434A04848484B40434C04046478
:1031F000A0474A048464A0484542044A0434A042DB
:1032000042024A0424E04040424E04040424205474
:10321000A04848464A04B404442064205440542042
:10322000642084845420B40444205420B4044420F2
:1032300064205420B404848434A04B404442064AA1
:103240000464A04642054A04B40484843420B404CF
:1032500044206420642064205420B40484843440D6
:1032600054A045420B40444A0464A04544084844E5
:1032700044054A045420B40444A0464A0464A048C7
:1032800048454A04B404442064A046430542054B23
:10329000040A04848444206420544054206420643C
:1032A00020848454B040A0464A0464A0464A046482
:1032B000A0434B040A048484542064A0464A046456
:1032C000A04542054A04B4048484442064C04043B9
:1032D00042074C040444C04044420848464A04643F
:1032E000A0464A0464A0464A0454408484542054AE
:1032F000404440542064206420848464205430542A
:1033000040543054305420848454A04B40444206EE
:103310004206420642054A04B40484843420B404BC
:10332000442064205420B40444A0464A04848454B5
:10333000A04B404442064205430643044A04B404F9
:1033400084843420B404442064205420B40444C051
:103350004044420848454B040A0444A0464A0454E9
:10336000A04B40454A044420B40484843440B4044F
:1033700044A0464A0464A0464A0464A04848444223
:103380000642064206420642054A04B404848444C6
:103390002064206420642054A04B40434A04B404B9
:1033A0008484442064206420544044405420848415
:1033B0006420642054A04B40434A04B40444206475
:1033C00020848464A0424A0424A0424A04D4040411
:1033D00074A0464A0464A048484344064A0474A0C2
:1033E000434A0474A045440848444B040A0434A0EA
:1033F000464A0464A0464A0464B040A04848484491
:103400004A0454A0484B40454A0484B4048484C40C
:10341000040A0454A0464A0464A0464A0444B04046
:10342000A04848464A0434C04048484848484848AC
:1034300048484848484848444A04B40434A0484BE3
:103440004048484848484848434B040A04442064DC
:103450003044C0404848454A0464A045420B4044BB
:1034600042064205420B4048484848434B040A0480
:1034700044A0464A0454B040A04848454A0464A0C9
:10348000444B040A044420643044C040484848483F
:10349000444A04B4044430442064B040A048484640
:1034A0004A0434C040444A046420B40434A0464A68
:1034B000048484848464B040A04442054B040A041C
:1034C00054A04848454A0464A045420B4044420683
:1034D0004206420848484A048434A04B40464A0405
:1034E00064A0434B040A04848454A048464A0464FC
:1034F000A0464A0444C0404848454A0464A04642A5
:1035000005420B40444206420848454A04B404645C
:10351000A0464A0464A0464A0434B040A048484843
:10352000484343064E04040424E04040424A042435
:10353000A048484848424C04043430642064208445
:1035400084848454A04B4044420642054A04B40497
:10355000848484843420B40444205420B40444A0DB
:1035600048484848454B040A04442054B040A0450C
:103570004A048484848454C0404343064A0464A0BB
:1035800048484848454B040A04342084204420B469
:1035900004848434A0464A046420B40434A0464C15
:1035A000040474A048484848444206420643044C78
:1035B00004048484848444C040444C040444C040D3
:1035C000474A048484848444A0424A0424E040405E
:1035D000424E040404C4040A0484848484442054B1
:1035E000A04B40434A04B40444208484848464206F
:1035F000642054B040A0454A0484848484444074C8
:10360000A0434A04644084642044A0484B404342A1
:10361000084B40434A048420848474A0464A0464CE
:10362000A0464A0464A0464A048434A04B40454A5C
:103630000474A0454A04B40444A0454A0444A04B81
:10364000404848434C040454C0404848484848480F
:1036500048484848484848484848484848484847EB
:103660004A0464B30434A04B43434A04B43434A042
:103670004B43464A0454A04848084848484848082C
:103680004B40454A04B43454B30454B30454B30413
:1036900034A04B43434B3048454206420B40434421
:1036A00004440B404A40304420B4043420846480F5
:1036B00084B414542174A14845480848084A146445
:1036C00021B41434A1484648084808434A1434B188
:1036D00041A1464A1484348084808424A146421B3C
:1036E00041434A1484448084808454A1434B141A77
:1036F0001464A1484A407084808444A146421B411E
:10370000434A1484248084808474A1434B141A1483
:1037100064A14748084808464A14642164A14848FF
:1037200008480848464A14848480848484848484B5
:1037300084000000004010006B2DFF7F383800022D
:10374000453800025538000266380002743800021D
:10375000843800025E37000202000000040000000E
:10376000080000001000000000040000FFFF00003F
:1037700000000000303132333435363738394142B9
:10378000434445460053656C656374656420434358
:103790003A20006E2F610056616C3A2000412F42A2
:1037A0003D505245562F4E455854205041474520D4
:1037B00053454C3D534551005365722070726573FB
:1037C000737572653A0053455155454E4345520055
:1037D00052616E67653A202020206D656173206F0D
:1037E00066202020202062656174732E00420065EF
:1037F0006D7074790052454300504C4159004D554D
:10380000544544002F004C2F523D4D555445204106
:103810003D504C415920423D5245432053454C3D7B
:10382000434353004C4F41442F534156452050527F
:1038300045534554530050726573657478202020B9
:103840004C4F414420205341564500413D4C4F418F
:10385000442F534156452053544152543D42414315
:103860004B0020202020204742414D49444920421E
:1038700059205350524954455F544D202020202058
:103880000020202020202028535052495445534DD9
:103890004F44532E434F4D29202076312E362000A1
:1038A0004D4944492031202844554F29004D494471
:1038B000492032202853414D504C4529004D494460
:1038C00049203320285357454550454429004D4948
:1038D000444920342028504F4C5929004D4944492F
:1038E00020313020284E4F4953452900474C4F4244
:1038F000414C004172706567676961746F72207333
:103900007065656400537765657020737465702019
:1039100073697A65005371756172652077617665A8
:10392000666F726D20706374004E6F697365204C12
:10393000465352206C656E67746800447574792034
:103940006379636C650053616D706C652074797088
:10395000650044757479206379636C65206F662017
:1039600073712077005377656570207370656564A7
:103970000053617720776176652070637400446539
:10398000636179206C656E67746800456E76656C5E
:103990006F7065206C656E67746800536F756E6438
:1039A000206C656E67746800476C697373616E6440
:1039B0006F206D6F646500476C697373616E646F2F
:1039C000206C656E6774680050616E004C464F3124
:1039D00020746172676574004C464F312072616ECD
:1039E0006765004C464F31206672657175656E6380
:1039F00079004C464F3220746172676574004C4602
:103A00004F322072616E6765004C464F32206672FD
:103A1000657175656E6379004C464F332074617231
:103A2000676574004C464F332072616E6765004CC9
:103A3000464F33206672657175656E637900417516
:103A400064696F2073616D702072617465004D4907
:103A50004449206368616E6E656C730053706565E0
:103A600064004274732F6D656173004D65617375F9
:103A7000726573005175616E74697A6520746F00A8
:103A80005175616E74697A65207261746500426176
:103A900073736C696E652073706C69740042617336
:103AA000736C696E65206F66667365740043683178
:103AB0002D342C3130004368312D35004368352DCD
:103AC0003900436831322D3136004C65667400434D
:103AD000656E746572005269676874003962697452
:103AE0002F33324B487A00386269742F36344B4892
:103AF0007A00376269742F3133314B487A0036626D
:103B000069742F3236324B487A0031322E35250017
:103B1000323525003530250031312D62697400378A
:103B20002D626974006F666600312F34206D656107
:103B30007300312F32206D6561730031206D656136
:103B40007300717569636B7072657373006C656780
:103B500061746F00616C7761797300747269616E72
:103B6000676C6500327873717561726500737120DE
:103B7000676C746368006861726D6F6E0073717555
:103B80006120616C740072616E646F6D0043683116
:103B90002064757479004368332064757479004E2D
:103BA0006F697365206269747300436832207361C2
:103BB0006D706C6500436831207069746368004300
:103BC0006832207069746368004E6F697365207095
:103BD00074636800436833207069746368005377C6
:103BE0006565702076616C00537765657020737031
:103BF00064005377656570206C656E00537765656A
:103C00007020656E760043683420737172650043DE
:103C100068342073712064740043683420736177C2
:103C20000043683420706974636800FFF0B52C4D60
:103C3000EB6D85B0002B4AD000272B6EDB19029369
:103C4000284B1C000026E033039340342379042BD7
:103C50001CD123780193002B18D0A268E368D318F5
:103C6000A3609A4209D96B6E1020236100F05EF8C0
:103C70000100019800F062F8E060A36822691B0E61
:103C8000D25661780B005343DB11F618039B1434B2
:103C9000A342DBD1144A136801331360AA6E1A429F
:103CA00001D0124BF6180322F31713409E19B610D9
:103CB000330080330FDA802676423606029B360EBA
:103CC00001371E70802FB8D10023EB65AB6605B0BD
:103CD000F0BC01BC00477F2EEFDD7F26EDE7C0463C
:103CE00074030003740200033C2D0003FF01000075
:103CF000084B09491A6E88698A610121D96500213A
:103D00001866064B1960064B1A60064A064B1A8065
:103D10007047C04674030003F4050003D00000049C
:103D2000C800000440B6FFFFD20000047847C04638
:103D300000C09FE51CFF2FE19D0100027847C046AF
:103D400000C09FE51CFF2FE1D9040002FFFFFFFF29
:103D5000010000007A140000300700033007000360
:103D6000B4070003B40700035C2D00031A0006002B
:103D70000C0000008B380002000000000900080061
:103D80000C0000009D380002000000000D00100033
:103D90000C000000AD380002000000000300000429
:103DA0000C000000C1380002BC300003010002001A
:103DB0000D000000D33800029C3000030400040012
:103DC0000D000000DE38000224310003020008006C
:103DD0000D000000D33800029C3000030E001000DC
:103DE0000D000000EA380002000000000A00080090
:103DF0000E000000FD380002000000000F0010005F
:103E00000E0000000939000200000000160010003A
:103E100048000000163900020000000013000200F4
:103E20004900000023390002000000000C000800D7
:103E300049000000233900020000000014000004C3
:103E400049000000233900020000000012000200B7
:103E50004A00000033390002000000001100040095
:103E60004A00000033390002000000000B00080087
:103E70004A00000033390002000000001500000471
:103E80004A00000033390002000000001700020061
:103E90004B00000040390002FC3000031800040011
:103EA0004B00000040390002FC30000319000600FE
:103EB0004C0000004F3900020000000031000200F9
:103EC0000A00000060390002543000033200040090
:103ED0000A0000006039000254300003330008007B
:103EE0000A00000060390002543000033400100062
:103EF0000A0000006039000254300003350000045D
:103F00000A00000060390002543000032800FFFF5F
:103F100010000000643900026C3100032900FFFF2B
:103F20001100000070390002000000002A00FFFFAD
:103F3000120000007B390002000000002B00FFFF90
:103F4000130000008A3900026C3100032C00FFFFCF
:103F50001400000096390002000000002D00FFFF51
:103F600015000000A1390002000000002E00FFFF34
:103F700016000000B03900026C3100032F00FFFF73
:103F800017000000BC390002000000003000FFFFF5
:103F900018000000C7390002000000003600FFFFD3
:103FA00000000000D6390002743000033700FFFF24
:103FB00000000000E63900022C3000031E00000063
:103FC00000000000F4390002000000001F000000A3
:103FD00000000000FA39000200000000200000008C
:103FE00000000000033A0002000000002100000071
:103FF000000000000C3A0002D43000032200000050
:1040000000000000183A0002000000002300000039
:1040100000000000263A000200000000240000001A
:1040200000000000353A000200000000000000001F
:104030000000000000000000000000002000000060
:10404000453A0002400000004E3A000260000000C5
:10405000543A0002800000005A3A000200000000BA
:10406000000000002B000000623A00025500000032
:10407000673A0002800000006E3A00020000000073
:104080000000000020000000743A00024000000020
:104090007F3A0002600000008A3A000280000000BF
:1040A000963A000200000000000000002B00000013
:1040B000A23A000255000000A83A00028000000069
:1040C000AC3A0002000000000000000040000000C8
:1040D000B03A000280000000B73A00020000000081
:1040E0000000000020000000BD3A00024000000077
:1040F000C13A000260000000CA3A000280000000DD
:10410000D33A000200000000000000002000000080
:10411000BD3A000240000000DA3A000260000000F0
:10412000E53A000280000000EC3A000200000000C6
:104130000000000010000000FE3A00022000000015
:10414000F33A000230000000B53B000240000000DE
:10415000FC3A000250000000053B00026000000035
:104160000E3B000270000000153B000280000000C2
:104170001E3B0002000000000000000008000000DC
:10418000253B0002100000002E3B0002180000003A
:10419000373B000220000000423B000228000000E4
:1041A0004D3B000230000000573B00023800000089
:1041B000613B0002400000006C3B00024800000030
:1041C000763B000250000000803B000258000000D7
:1041D0008A3B000260000000943B0002680000007F
:1041E0009E3B000270000000A73B00027800000028
:1041F000B13B000280000000B93B0002000000005B
:1042000000000000FFFFFFFFFFFFFFFF01000000B5
:1042100011241FBECFEFD8E0DEBFCDBF21E0A0E06C
:10422000B1E001C01D92AF32B207E1F791D327C4CC
:104230000C94000020918400309185008217930730
:10424000C8F7109285001092840008950F931F9371
:10425000CF93DF93419A399880E090E0EBDF80EADA
:1042600090E0E8DF4298C0E0D0E031991DC080E5E1
:1042700090E0E0DF3199F9CF80EA90E0DBDF00E108
:1042800010E0C0E0D0E0D695C7953199D06880EABB
:1042900090E0D0DF01501109B1F780EA90E0CADF69
:1042A000429A389A409A0AC02196C13187E2D807CB
:1042B000E4F2389A409A429ACFEFDFEFCE01DF91D5
:1042C000CF911F910F9108950F931F93CF93DF9379
:1042D0008C01419A3998409A3898429A80E090E04F
:1042E000A9DFC1E1D7E286B183708330D9F480E0E1
:1042F00095E0A0DF389A399A4098419880EA90E09A
:1043000099DFC0E1D0E000FF17C0419A80EA90E059
:1043100091DF169507952197B1F7419A80EA90E0D1
:1043200089DF05C080E590E085DF2197E1F6DF9128
:10433000CF911F910F9108954198E8CFC5DF86CFA7
:1043400081E0809381003A9A88B18F6088B908959E
:10435000282F98E080E04AE127FF14C0429A220FFC
:104360004098342F3A95F1F7880F33998160409A3D
:10437000342F3A95F1F7915079F7E8ECF0E0319766
:10438000F1F708954298EBCF1092820087B18560D3
:1043900087B988B18D6088B90895A0E8B0E0E2EDF2
:1043A000F1E211C38830910540F546968C01102F3B
:1043B0000027110F110F58018CEFB81A6E0191E808
:1043C000C90ED11C91EF892E9FE3992ECE01019643
:1043D0007C013C018EEFBCDFF70181937F01CE169B
:1043E000DF06C1F7F894B301C801F4010995789488
:1043F00000581F4F0A151B0549F7C058DF4FEEE064
:10440000FEC20F931F93CF93DF93EC018C010A5EE2
:104410001F4F102F0027110F110F8FEF99DF8C2FD7
:10442000806296DFC0E0D0E0FE01E00FF11F8491D2
:104430008FDF2196C11584E0D807B1F7DF91CF91C6
:104440001F910F9108951F93CF93DF93C82F813051
:10445000B9F48EEF7DDF182F8EEF7ADFD82F8EEF35
:1044600077DF2D2F30E0322F2227210F311D682FCB
:10447000C9010196F2D28C2FDF91CF911F9108953F
:104480008230B9F48EEF64DFC82F8EEF61DF90E0E9
:10449000982F88278C0F911D0196D7D2D82F8FEF98
:1044A00057DF82E055DF8C2F53DF8D2F51DFC1E0C6
:1044B000E2CF082E000C990B887F99278031910557
:1044C00039F4F894C7708C2F90E067DF7894EFCFC1
:1044D000809729F4C7708C2F90E093DFE8CFC0E07D
:1044E000CACF14BC85E085BD16BC30D18C010F3F0E
:1044F0008FEF180729F486B5883C10F42097A9F3AC
:1045000016BC0F3F8FEF180761F48EEF21DF9BDFA2
:10451000811104C0209749F32197E7CFCAE0D0E08A
:10452000E4CFC8018E5F9109029718F48FEF10DF76
:104530008ADF802FEBCF90E0982F8827092E000C80
:10454000AA0BBB0B816CAF6FBF6F80930001909380
:104550000101A0930201B093030108958F929F92ED
:10456000AF92BF92CF92DF92EF92FF920F931F9381
:104570004B015C016A0120910001309101014091E1
:1045800002015091030163E775E684E69FE6FED1E0
:104590006F5F7F4F8F4F9F4F6093000170930101BA
:1045A0008093020190930301682579258A259B2534
:1045B0002FE6622724E6722725E6822724E6922743
:1045C0000D2C000CEE08FF0800E010E020E03EEFAC
:1045D0000C191D092E093F0960277127822793278F
:1045E0001F910F91FF90EF90DF90CF90BF90AF9011
:1045F0009F908F9008950F931F9308EF1FEF20E077
:1046000030E00093070110930801209309013093D3
:104610000A018093060170930501609304011F91C4
:104620000F9108958F929F92AF92BF92CF92DF9297
:10463000EF92FF928090070190900801A0900901ED
:10464000B0900A0120E230E075016401C626D72649
:10465000E826F926B594A79497948794969587951C
:1046600077956795C0FE04C047E1842645EA942605
:104670002150310949F78092070190920801A092D8
:104680000901B0920A01FF90EF90DF90CF90BF90A8
:10469000AF909F908F9008950F931F936627882760
:1046A00099270091040110910501012E000C220BA5
:1046B000330B600F711F821F931F982F872F762F48
:1046C00066278F6F9F6F20910601620F711D811DFC
:1046D000911DA8DF60910701709108018091090187
:1046E00090910A011F910F9108951F920F920FB69A
:1046F0000F9211242F938F939F93EF93FF93E09149
:104700002B01F0912C018091C600808380912B01B8
:1047100090912C01019690932C0180932B01809114
:104720002B0190912C018B52914030F08BE091E065
:1047300090932C0180932B01FF91EF919F918F918A
:104740002F910F900FBE0F901F90189520912B0165
:1047500030912C0180912D0190912E01281739075D
:10476000F1F0E0912D01F0912E01808120912D0139
:1047700030912E012F5F3F4F30932E0120932D015A
:1047800020912D0130912E012B52314030F02BE041
:1047900031E030932E0120932D0190E008958FEFAA
:1047A0009FEF08958BE091E090932C0180932B0173
:1047B00090932E0180932D0188E98093C10087E2B8
:1047C0008093C4001092C5000895A0E0B0E0EAEE26
:1047D000F3E2FDC06C01EB01C07F60960EE110E0DA
:1047E000B4EFEB2EFF24F39488EE93E0F7013197BA
:1047F000F1F70197D9F782E092E6A0DD8230924787
:1048000019F00150110981F780E091E697DD7601FA
:1048100080ECE80EF11CF6018491482F50E060E036
:1048200070E086010E5F1F4F3196E491F0E0FE2F9D
:10483000EE27CF01FF0FAA0BBB0B842B952BA62BCA
:10484000B72B7CDD6801E016F10629F782E092E6DD
:1048500075DD81EC93E672DD81EC93E66FDD8C0112
:104860006ADE015F1D4FC8019927946667DDCE019E
:10487000A0E0B0E0805C9109A109B10942E0B595E2
:10488000A795979587954A95D1F7C49757DDBC01B1
:10489000802FB1DE00EC10E00C171D0700F185E65B
:1048A00090E04CDD85E690E049DDCFE1D0E004EF1B
:1048B00011E085E690E042DD8537910519F02197FA
:1048C00009F03EC086E690E039DDBC0180E090E072
:1048D000E3DECB0133DDCDB7DEB7EAE094C0F7010C
:1048E0008491482F50E060E070E031962491319639
:1048F000E4918E2F90E0A0E0B0E0DC0199278827BA
:10490000922B842B952BA62BB72B5701F4E0AF0EDF
:10491000B11CF7013396E4916C017D01FE2AC701B9
:10492000B60180DEA801C701B60118DE6B017C016B
:10493000CB0104DDC70102DD0C5F1F4F7501ACCF59
:1049400088EE93E0F8013197F1F70197D9F7B1CFED
:10495000F7DC80E797E124EF31E0F9013197F1F7D7
:104960000197D9F760E172E46856704088E690E0FC
:104970002CDF0ADD80E49FE124EF31E0F90131977B
:10498000F1F70197D9F778940DDFABDDDB018F9359
:104990009F930BD0BF91AF91A29F800D911DA39FBC
:1049A000900DB29F900D1124089540D0A59F900DB9
:1049B000B49F900DA49F800D911D112408952F92F6
:1049C0003F924F925F926F927F928F929F92AF929F
:1049D000BF92CF92DF92EF92FF920F931F93CF93EC
:1049E000DF93CDB7DEB7CA1BDB0B0FB6F894DEBF83
:1049F0000FBECDBF09942A88398848885F846E84A9
:104A00007D848C849B84AA84B984C884DF80EE80F2
:104A1000FD800C811B81AA81B981CE0FD11D0FB6FB
:104A2000F894DEBF0FBECDBFED010895A29FB00187
:104A3000B39FC001A39F700D811D1124911DB29FD2
:104A4000700D811D1124911D0895F999FECF92BD1D
:104A500081BDF89A992780B50895262FF999FECF40
:104A600092BD81BDF89A019700B4021639F01FBAC1
:104A700020BD0FB6F894FA9AF99A0FBE0895F894EB
:024A8000FFCF66
:00000001FF
