:1038000033C0000041C000003FC000003DC00000C8
:103810003BC0000039C0000037C0000035C00000C8
:1038200033C0000031C000002FC000002DC00000D8
:103830002BC0000029C0000027C0000025C00000E8
:1038400023C0000021C0000025C300001DC00000EF
:103850001BC0000019C0000017C0000015C0000008
:1038600013C0000011C0000011241FBECFEFD4E030
:10387000DEBFCDBF11E0A0E0B1E001C01D92AE32CD
:10388000B107E1F7FFD08EC3BBCF20918400309108
:10389000850082179307C8F7109285001092840064
:1038A00008950F931F93CF93DF938C01419A39981A
:1038B000409A3898429A80E090E0E7DFC0E0D0E09C
:1038C00008C08EE490E0E1DF219687E2C131D8079D
:1038D00009F186B183708330A1F788EE94E0D5DFDB
:1038E000389A399A409841988DE990E0CEDFC0E14E
:1038F000D0E000FF02C0419A01C041988DE990E0FC
:10390000C4DF219719F016950795F3CF419A8DE9F9
:1039100090E0BBDFDF91CF911F910F910895EF925F
:10392000FF920F931F93CF93DF93BBDF419A399898
:1039300080E090E0AADF8DE990E0A7DF4298C0E048
:10394000D0E00BC0219627E2C131D20734F0389A7B
:10395000409A429ACFEFDFEF1EC03199F3CF8EE449
:1039600090E093DF3199F9CF8DE990E08EDF00E1AF
:1039700010E0C0E0D0E0D695C7953199D0688DE9C8
:1039800090E083DF01501040B1F78DE990E07DDFDA
:10399000429A389A409A7E01CE01CDB7DEB7E6E072
:1039A000F2C2AF92BF92CF92DF92EF92FF920F934B
:1039B0001F939B01AC018091260190912701A0915A
:1039C0002801B091290160E070E017E1A12E15EA0D
:1039D000B12EC12CD12C7C018D01E226F3260427C7
:1039E0001527B595A795979587955695479537953A
:1039F0002795E1E0EE22FF24E114F10421F08A256D
:103A00009B25AC25BD256F5F7F4F6032710519F78F
:103A10008093260190932701A0932801B093290158
:103A20001F910F91FF90EF90DF90CF90BF90AF90DC
:103A3000089520911F0130912001809121019091E2
:103A4000220128173907A9F3E0912101F091220101
:103A5000808120912101309122012F5F3F4F3093CF
:103A6000220120932101209121013091220191E036
:103A70002F31390730F020E031E0309322012093DC
:103A800021010895A3E0B1E0E7E4FDE154C281E043
:103A9000809381003A9A88B18F6088B980E797E176
:103AA00024EF31E0F9013197F1F70197D9F70EE1F1
:103AB00010E0F4EFEF2EF1E0FF2E88EE93E0F70137
:103AC0003197F1F70197D9F782E092E628DF22E7F4
:103AD0008230920719F00150104079F780E091E6AA
:103AE0001EDFCC24DD248601C801F801249130E0DA
:103AF00040E050E00E5F1F4F0196FC018491982E2C
:103B00008824C401AA2797FDA095BA2F822B932B56
:103B1000A42BB52B04DF003C110531F7680182E0CE
:103B200092E6FDDE81EC93E6FADE81EC93E6F7DEC9
:103B3000382F20E0442737FD4095542F216C4F6FDC
:103B40005F6F20932A0130932B0140932C015093F7
:103B50002D01815F082F10E0C8019466E0DE80EA45
:103B60009DE0DDDECD5FDE4F0883C350D1401C01F8
:103B700088EF9FEFA0E0B0E08093260190932701AB
:103B8000A0932801B09329010093250130922401CC
:103B900020922301E0E44E2EEFEF5E2EEFEF6E2E2B
:103BA000EDEF7E2E4601C401F401E490FF2400E015
:103BB00010E03196A490F40132962491BB24CC24D9
:103BC000DD24DC2CCB2CBA2CAA2430E040E050E0E1
:103BD000A90133272227A22AB32AC42AD52AAE282C
:103BE000BF28C02AD12A24E030E0820E931E03961B
:103BF000FC01849190E0A0E0B0E0B82FAA279927BB
:103C00008827A82AB92ACA2ADB2AC601B501C9DE33
:103C100060912A0170912B0180912C0190912D01CE
:103C200023E735E644E65FE667D16F5F7F4F8F4F4E
:103C30009F4F60932A0170932B0180932C019093E6
:103C40002D01AFE6EA2EA4E6FA2EA5E60A2FA4E699
:103C50001A2FE626F72608271927E424F524062537
:103C60001725EA24FB240C251D25C70158DEC801B1
:103C700056DE8CEF9FEFAFEFBFEF480E591E6A1E66
:103C80007B1E90E1891698E3990609F08CCF85E6B2
:103C900090E045DE85E690E042DE0EE110E0F4EFD4
:103CA000EF2EF1E0FF2E09C088EE93E0F701319787
:103CB000F1F70197D9F70150104085E690E02FDE2B
:103CC0008537910519F00115110571F786E690E029
:103CD00026DEBC0180E090E060708070907044242B
:103CE00037FC4094542C620D731D841D951D982F34
:103CF000872F762F66278F6F9F6FCD5FDE4FA8814E
:103D0000C350D1406A0F711D811D911D4ADE809103
:103D100026019091270103DE80E395E724EF31E04F
:103D2000F9013197F1F70197D9F781E085BF82E07A
:103D300085BF789480E091E09093200180931F01EB
:103D4000909322018093210188E98093C10087E24A
:103D50008093C4001092C500CC24EE2400E053E010
:103D6000F52E5E010894A11CB11CDD24D39445E01E
:103D7000942E31E1432E03C00E2DEC2CC82C59DEBD
:103D8000882E90E08EDD003FB9F7BE2DBD37A1F73C
:103D9000EC2DE73489F7F82DF23471F74ADE8823E9
:103DA000E9F447DE082F10E024E0000F111F2A95E8
:103DB000E1F73FDE90E0082B192B0A0D1B1D39DEC1
:103DC000282E87FDD9CF35DE87FDD6CF229490EF00
:103DD0002922282AD8012D928D01F1CF813061F658
:103DE00028DE082F10E084E0000F111F8A95E1F70C
:103DF00020DE90E0802B912B182F002780E090E0B0
:103E0000BC01600F711FF894F999FECFFB01F0928D
:103E10005700E89507B600FCFDCFD501A80FB91FE4
:103E200020E030E04C9150E0F901E60FF71F1196C9
:103E30006C901197CE5FDE4F6882C250D140CF5F49
:103E4000DE4F1882C150D140CF5FDE4F688079804D
:103E5000C150D140462957290A01D0925700E89510
:103E600011242E5F3F4F129620383105D9F6805825
:103E70009F4FFB0190925700E89507B600FCFDCFDD
:103E80007894F1E080309F0709F0BACF4092570054
:103E9000E89572CF1F920F920FB60F9211242F93B5
:103EA0008F939F93EF93FF93E0911F01F091200177
:103EB0008091C600808380911F019091200101961E
:103EC0009093200180931F0180911F019091200108
:103ED00021E08F31920730F080E091E09093200153
:103EE00080931F01FF91EF919F918F912F910F90E0
:103EF0000FBE0F901F901895629FD001739FF00125
:103F0000829FE00DF11D649FE00DF11D929FF00D69
:103F1000839FF00D749FF00D659FF00D9927729FA0
:103F2000B00DE11DF91F639FB00DE11DF91FBD012B
:103F3000CF01112408952F923F924F925F926F927A
:103F40007F928F929F92AF92BF92CF92DF92EF9229
:103F5000FF920F931F93CF93DF93CDB7DEB7CA1BAA
:103F6000DB0B0FB6F894DEBF0FBECDBF09942A88D5
:103F7000398848885F846E847D848C849B84AA847D
:103F8000B984C884DF80EE80FD800C811B81AA810A
:103F9000B981CE0FD11D0FB6F894DEBF0FBECDBFD5
:083FA000ED010895F894FFCF34
:0400000300003800C1
:00000001FF
