:1038000033C0000041C000003FC000003DC00000C8
:103810003BC0000039C0000037C0000035C00000C8
:1038200033C0000031C000002FC000002DC00000D8
:103830002BC0000029C0000027C0000025C00000E8
:1038400023C0000021C0000013C200001DC0000002
:103850001BC0000019C0000017C0000015C0000008
:1038600013C0000011C0000011241FBECFEFD8E02C
:10387000DEBFCDBF21E0A0E0B1E001C01D92AE32BD
:10388000B207E1F724D3A1C3BBCFA0E0B1E0EAE4E3
:10389000FCE15BC343E0A42EBB24B39455E0C52EEA
:1038A00061E1962E16D2182F90E0C4D020EFF212CC
:1038B00073C03DE7D31270C0073409F06DC01234F5
:1038C00009F06AC006D281111CC003D240E1849F76
:1038D00070011124FED1E82A81E090E08C0F9D1F39
:1038E000E80EF91EF6D187FD57C0882E829430EF7E
:1038F0008322EFD187FD50C08829F70181937F0192
:10390000F1CF813009F048C0E4D1F0E18F9F700120
:103910001124DFD19701282BC901982F882720E097
:1039200030E07C01E20EF31EF894F999FECFF70126
:10393000A0925700E89507B600FCFDCFA1E0B0E0EB
:10394000AC0FBD1FA20FB31F60E070E04C91FB01F4
:10395000EE0DFF1D11968C90119750E058290A0129
:10396000B0925700E89511246E5F7F4F1296603831
:10397000710561F720583F4FF701C0925700E89555
:1039800007B600FCFDCF78942115F1E03F0709F060
:10399000C8CF90925700E895FD2CD02E012F82CFF2
:1039A000209184003091850082179307C8F7109208
:1039B00085001092840008950F931F93CF93DF9397
:1039C000419A399880E090E0EBDF8DE990E0E8DF04
:1039D0004298C0E0D0E031991DC08EE490E0E0DF75
:1039E0003199F9CF8DE990E0DBDF00E110E0C0E034
:1039F000D0E0D695C7953199D0688DE990E0D0DFB9
:103A000001501109B1F78DE990E0CADF429A389A66
:103A1000409A0AC02196C13187E2D807E4F2389A69
:103A2000409A429ACFEFDFEFCE01DF91CF911F9105
:103A30000F9108950F931F93CF93DF938C01419AB9
:103A40003998409A3898429A80E090E0A9DFC1E125
:103A5000D7E286B183708330D9F488EE94E0A0DF9A
:103A6000389A399A409841988DE990E099DFC0E101
:103A7000D0E000FF17C0419A8DE990E091DF1695E4
:103A800007952197B1F7419A8DE990E089DF05C04C
:103A90008EE490E085DF2197E1F6DF91CF911F91D1
:103AA0000F9108954198E8CFC5DF86CF81E08093DC
:103AB00081003A9A88B18F6088B9089590E0982F74
:103AC0008827092E000CAA0BBB0B816CAF6FBF6F50
:103AD0008093000190930101A0930201B093030130
:103AE00008958F929F92AF92BF92CF92DF92EF9202
:103AF000FF920F931F934B015C016A01209100011B
:103B000030910101409102015091030163E775E694
:103B100084E69FE6FBD16F5F7F4F8F4F9F4F60938F
:103B200000017093010180930201909303016825C5
:103B300079258A259B252FE6622724E6722725E62C
:103B4000822724E692270D2C000CEE08FF0800E0E7
:103B500010E020E03EEF0C191D092E093F096027F7
:103B60007127822793271F910F91FF90EF90DF908D
:103B7000CF90BF90AF909F908F9008950F931F9319
:103B800008EF1FEF20E030E00093070110930801D9
:103B90002093090130930A01809306017093050177
:103BA000609304011F910F9108958F929F92AF929D
:103BB000BF92CF92DF92EF92FF9280900701909098
:103BC0000801A0900901B0900A0120E230E07501DF
:103BD0006401C626D726E826F926B594A7949794BB
:103BE00087949695879577956795C0FE04C047E1C1
:103BF000842645EA94262150310949F7809207012D
:103C000090920801A0920901B0920A01FF90EF90F2
:103C1000DF90CF90BF90AF909F908F9008950F93BB
:103C20001F936627882799270091040110910501A9
:103C3000012E000C220B330B600F711F821F931F8C
:103C4000982F872F762F66278F6F9F6F2091060101
:103C5000620F711D811D911DA8DF60910701709198
:103C600008018091090190910A011F910F91089517
:103C70001F920F920FB60F9211242F938F939F9341
:103C8000EF93FF93E0912A01F0912B018091C60000
:103C9000808380912A0190912B01019690932B01B2
:103CA00080932A0180912A0190912B018A529140A0
:103CB00030F08BE091E090932B0180932A01FF91EB
:103CC000EF919F918F912F910F900FBE0F901F90AA
:103CD000189520912A0130912B0180912C0190910F
:103CE0002D0128173907A9F3E0912C01F0912D013E
:103CF000808120912C0130912D012F5F3F4F309317
:103D00002D0120932C0120912C0130912D012A525C
:103D1000314030F02BE031E030932D0120932C0125
:103D200008958BE091E090932B0180932A0190936A
:103D30002D0180932C0188E98093C10087E2809354
:103D4000C4001092C5000895A0E0B0E0E9EAFEE1E9
:103D5000FEC06C01EB01C07F60960EE110E0B4EF95
:103D6000EB2EFF24F39488EE93E0F7013197F1F7FF
:103D70000197D9F782E092E697DE8230924719F0F8
:103D80000150110981F780E091E68EDE760180EC2A
:103D9000E80EF11CF6018491482F50E060E070E0DD
:103DA00086010E5F1F4F3196E491F0E0FE2FEE2763
:103DB000CF01FF0FAA0BBB0B842B952BA62BB72B88
:103DC00073DE6801E016F10629F782E092E66CDE08
:103DD00081EC93E669DE81EC93E666DE8C016EDEB3
:103DE000015F1D4FC801992794665EDECE01A0E0F9
:103DF000B0E0805C9109A109B10942E0B595A795B1
:103E0000979587954A95D1F7C4974EDEBC01802FD0
:103E1000B5DE00EC10E00C171D0700F185E690E020
:103E200043DE85E690E040DECFE1D0E004EF11E034
:103E300085E690E039DE8537910519F0219709F084
:103E40003EC086E690E030DEBC0180E090E0E7DE38
:103E5000CB012ADECDB7DEB7EAE095C0F701849149
:103E6000482F50E060E070E0319624913196E49163
:103E70008E2F90E0A0E0B0E0DC0199278827922BFC
:103E8000842B952BA62BB72B5701F4E0AF0EB11C5A
:103E9000F7013396E4916C017D01FE2AC701B6015A
:103EA00084DEA801C701B6011CDE6B017C01CB01D9
:103EB000FBDDC701F9DD0C5F1F4F7501ACCF88EE4C
:103EC00093E0F8013197F1F70197D9F7B1CFEEDD23
:103ED00080E797E124EF31E0F9013197F1F701979D
:103EE000D9F760E078E380E090E02EDF80E395E7AB
:103EF00024EF31E0F9013197F1F70197D9F781E02B
:103F000085BF82E085BF78940CDFBFDCDB018F9337
:103F10009F930BD0BF91AF91A29F800D911DA39F46
:103F2000900DB29F900D1124089540D0A59F900D43
:103F3000B49F900DA49F800D911D112408952F9280
:103F40003F924F925F926F927F928F929F92AF9229
:103F5000BF92CF92DF92EF92FF920F931F93CF9376
:103F6000DF93CDB7DEB7CA1BDB0B0FB6F894DEBF0D
:103F70000FBECDBF09942A88398848885F846E8433
:103F80007D848C849B84AA84B984C884DF80EE807D
:103F9000FD800C811B81AA81B981CE0FD11D0FB686
:103FA000F894DEBF0FBECDBFED010895A29FB00112
:103FB000B39FC001A39F700D811D1124911DB29F5D
:0E3FC000700D811D1124911D0895F894FFCFFE
:0400000300003800C1
:00000001FF
